:02000004080AE8
:1000000000000A08383A0A08000006000600050148
:0800100004029A080000000040
:04001800FC350A08A1
:1000200009480A4908B5884205D0094A824202D0E7
:10003000121A03F089F90748074A0021121A03F03F
:10004000ABF9064808BD00BF00000020A4390A082B
:100050006C0000206C00002061060020610600207A
:1000600070B502F06BF90025054E064CA41BA408E0
:10007000A54200D170BD56F8043B98470135F7E71B
:1000800080390A08A0390A0800F026B808B500F03F
:1000900019F9BDE8084002F009B901F027B901F0EB
:1000A00025B901F02BB901F029B90078B0FA80F038
:1000B000400970470123037070470EB403B503ABCA
:1000C00053F8042B0021019301F04AFD02B05DF8C2
:1000D00004EB03B07047000008B50121002002F0D6
:1000E000A9F90121072002F0A5F9012001F069FD1D
:1000F000FF221146104601F074FD01F0E3FF4FF4BA
:10010000165101F0C5FF034800F098F90022024B98
:100110001A6008BD700000206C00002038B504682B
:1001200005467CB16368013B63605BB92368204688
:100130009B689847A368013BA3601BB923682046CE
:10014000DB689847284638BD0B68036013B15A68CE
:1001500001325A6070470000F0B595B001F0B2FF6F
:1001600003681B699847002840F3A080504906A8FF
:1001700001F0B9FD01F0A6FF03681B69984780B143
:1001800001F0A0FF03685B699847C1B20EA801F0B7
:100190000DFE0EA906A801F031FE0EA801F059FDD2
:1001A000E8E7069C434E204603F034F92146024618
:1001B00003A801F0B7FB039B059C04A90BA80A93B5
:1001C000FFF7C2FF21460AAA0EA801F06BFB0BA89D
:1001D000FFF7A4FF384F394D0EA801F07BFB002834
:1001E0005BD00E9B119C0FA902A80193FFF7ACFFF7
:1001F000214601AA0AA801F031FB02A8FFF78EFFF1
:1002000031460C9803F0F4F804460BA8FFF786FF7C
:10021000B4B90E9B129C0FA902A80193FFF794FF9B
:10022000214601AA0AA801F093F902A8FFF776FF78
:1002300023480AA900F07EFD0BA8FFF76FFFCBE76C
:100240000E9B119C0FA902A80193FFF77DFF214689
:1002500001AA0AA801F002FB02A8FFF75FFF3946D6
:100260000C9803F0C5F804460BA8FFF757FF002CC5
:10027000B2D10E9B129C0FA902A80193FFF764FF55
:10028000214601AA0AA801F063F902A8FFF746FF78
:1002900028460AA900F0C8FBCEE70FA8FFF73EFFEB
:1002A00004A8FFF73BFF06A801F0D3FC15B0F0BD92
:1002B0005F370A0810360A081B360A088400002037
:1002C000B80000202DE9F04342488BB000F0B4FAAA
:1002D0000446404800F074FA05463E4800F072FAC1
:1002E00021460646204603F013F848B92946284619
:1002F00003F00EF820B93146304603F009F860B13A
:1003000001F0E0FE01223449FFF7D7FE01F0DAFEEA
:1003100001F0FDFB0BB0BDE8F08301F0D3FE064613
:10032000204602F07DFA80462846894602F078FA97
:1003300042464B46CDE9000128493046FFF7BDFE55
:1003400001F0C0FE01F0E3FB00F0AAFD0446FFF758
:1003500003FF234800F0BCFC00F0A2FD0646214844
:1003600000F0AEFA0A22204D296891FBF2F302FB5D
:10037000131323BB2B6001F0A5FE074601F0A6FD79
:1003800080461A4902A801F0EDFC194906A8DDF8DB
:10039000089001F0E7FC069B361B42461549009386
:1003A00038464B460196FFF788FE06A801F051FC3F
:1003B00002A801F04EFC01F085FE01F0A8FB2B68BD
:1003C000643401332B6000F06BFD201AA2D000F0E2
:1003D000B5FF9FE77000002020360A082D360A0876
:1003E000B8000020840000206C000020D80000200D
:1003F000A800002056360A0808B50021012000F0A8
:10040000D1FE06230B220221054800F00FF8054813
:1004100000F08AFBBDE80840034800F00FBA00BFB7
:1004200070000020B8000020840000200372012327
:1004300010B58171C271037410BD00002DE9F04147
:1004400005461A4C0021807901F0F4FFAE7923783B
:10045000174F13F0010FBFF35B8F09D12046FFF751
:1004600024FE28B100F034FD38602046FFF722FE5C
:100470001C235E433B6803EB06082378BFF35B8FC6
:10048000DB0709D40948FFF710FE28B100F020FD72
:1004900038600648FFF70EFE3B68B8F804209B5909
:1004A0001A830023EB60BDE8F08100BFE800002064
:1004B000EC0000202DE9F74F044600F0F1FCE36862
:1004C000834284BF0023E360237C2BB9E368C01A16
:1004D000B0F5FA6FC0F03E810025257400F0E0FC15
:1004E0009E4E25602571E060A77933789C4D13F00E
:1004F000010FBFF35B8F09D13046FFF7D6FD28B15E
:1005000000F0E6FC28603046FFF7D4FD1C235F4373
:100510002B6803EB07083378BFF35B8FD90709D447
:100520008E48FFF7C2FD28B100F0D2FC28608B484E
:10053000FFF7C0FD2B68B8F80420DB59FA201A83B6
:1005400000F0FCFE0121A07901F074FFA779337857
:10055000BFF35B8FDA0709D48048FFF7A6FD28B107
:1005600000F0B6FC28607D48FFF7A4FD1C235F4324
:100570002B6803EB07083378BFF35B8FDB0709D4E5
:100580007648FFF792FD28B100F0A2FC286073487E
:10059000FFF790FD2B68B8F80420DB5914205A832C
:1005A00000F0CCFE00F00CFFA7793378BFF35B8F2F
:1005B000D80709D46948FFF778FD28B100F088FC16
:1005C00028606648FFF776FD1C235F432B6803EB2A
:1005D00007083378BFF35B8FD90709D45F48FFF76B
:1005E00064FD28B100F074FC28605C48FFF762FDF0
:1005F0002B68B8F80420DB5900271A83282000F064
:1006000047FC0021A07901F015FF0123BA46DFF86D
:100610004C8100934FF0000994F806B03378BFF393
:100620005B8FDA0709D44046FFF73FFD28B100F0A1
:100630004FFC28604046FFF73DFD1C2303FB0BFBEE
:100640002B6853F80B301B6901933378BFF35B8F32
:10065000DB0709D44046FFF728FD28B100F038FC3D
:1006600028604046FFF726FD2B68019A5B449B8873
:10067000134214BF01230023009A934209D109F1C8
:10068000010901205FFA89F900F002FCB9F1FF0FBE
:10069000C2D194F806B03378BFF35B8FD80709D482
:1006A0004046FFF702FD28B100F012FC28604046EA
:1006B000FFF700FD1C2303FB0BFB2B6853F80B30EB
:1006C0001B6900933378BFF35B8FD90709D4404689
:1006D000FFF7EBFC28B100F0FBFB28604046FFF77A
:1006E000E9FC2B68009A5B449B88134214BF0123EA
:1006F0000023B9F1FF0F009318D0032F11D9FA0787
:100700000FD44FEADA02A35C0AF1010A5B00DBB204
:10071000A354217A5FFA8AFA49453CBF43F00103AA
:10072000A3540137FFB2552F7FF474AF00F04AFE97
:10073000BAF1270F10D9637820781844A3781844A9
:10074000E37818442379C0B2C31A5842584103B021
:10075000BDE8F08F0120FAE70020F8E7E80000206C
:10076000EC00002070B50446FFF7A4FE08B3E3795F
:100770000B2B1AD0153B012B1BD8A67806F07F0057
:1007800002F022FC4FF0874102F072FC0546E0784F
:1007900002F01AFC294602F063FB074902F01CFD37
:1007A000330605D500F1004002E0A07802F008FC15
:1007B00070BD0248FCE700BF000020410000C07F80
:1007C000FFF7D0BF08B5FFF7CDFF054902F050FC99
:1007D000044902F001FD4FF0844102F041FB08BDE5
:1007E000000010410000A04038B50446FFF762FE4B
:1007F000D8B1E3790B2B14D0153B012B15D82078F9
:1008000002F0DEFB4FF0874102F032FC05466078D3
:1008100002F0DAFB294602F023FB054902F0DCFC7A
:1008200038BD207802F0CCFBFAE70248F8E700BFB9
:10083000000020410000C07FFFF7D6BF38B500F1AF
:10084000240504460B49284601F04DFA0123237084
:10085000802340F6C41163604FF4FA732846C4E95C
:100860000313054901F091FA044B2046C4E907330C
:1008700038BD00BF5F370A087F360A086179FEFF7E
:1008800010B504460B2001F0FFFDA06010BD000074
:1008900010B50446836886B0009343680278074920
:1008A00002A801F0AFFA02A904F1240001F065FAF0
:1008B00002A801F0CEF906B010BD00BF82360A08CA
:1008C0002DE9F84306780446002E3AD0012E30D1A7
:1008D000FFF7D6FF2569A068E768A842B8BF284699
:1008E0008742D4BFC5EB0700C5EB000001F086FFCF
:1008F0008046781B894601F081FF02460B46404640
:10090000494602F00FF90022304B02F053FA31460B
:10091000054640B1072001F09EFD01F0D7FA002303
:100920006061237005E001F06FF92946072001F0AE
:1009300092FD274B2046C4E90733BDE8F843FFF793
:10094000A7BFFFF79DFF2569A068D4F80C80A842D7
:10095000B8BF28468045D4BFC5EB0800C5EB0000F2
:1009600001F04CFF0646A8EB05000F4601F046FFDC
:100970000B4602463946304602F0D4F80F4606468A
:1009800002F040FA606001F0A1FA6369A061C01A48
:100990000A2809DD01F096FB01220E49FFF78DFBC5
:1009A00001F090FB01F0B3F8394600223046074BC6
:1009B00002F000FA014608B10121B7E7072001F073
:1009C0004AFD01F083FA01236061AAE70000E03FDD
:1009D0006179FEFFB4360A0837B50446CD6851F890
:1009E000043B01A80093FFF7AFFB6A462946204667
:1009F00000F034FF01A8FFF791FB204603B030BDA3
:100A000037B504460D6951F8043B01A80093FFF780
:100A10009BFB6A462946204600F09AFD01A8FFF795
:100A20007DFB204603B030BD2DE9F0418AB08D68D2
:100A300051F8043B044601A80093FFF785FB6A4682
:100A4000294604A800F02EFF01A8FFF767FB324EED
:100A5000324FDFF8D08004A800F03CFF002855D0CA
:100A6000684604A9FFF7B8FF3146029802F0C0FCBF
:100A7000054601A8FFF752FB684604A94DB9FFF7E8
:100A8000BFFF684600F0DAFD206101A8FFF746FBD2
:100A9000E1E7FFF7A1FF3946029802F0A9FC0546FD
:100AA00001A8FFF73BFB684604A935B9FFF7A8FF8B
:100AB000684600F0C3FDE060E7E7FFF78DFF4146C1
:100AC000029802F095FC054601A8FFF727FB68464F
:100AD00004A935B9FFF794FF684600F0AFFD206226
:100AE000D3E7FFF779FF0E49029802F081FC054633
:100AF00001A8FFF713FB002DADD1684604A9FFF74D
:100B00007FFF684600F05CFDE061BEE705A8FFF7E7
:100B100005FB0AB0BDE8F081C2360A08C6360A08ED
:100B2000D8360A08CA360A0838B500F12005044646
:100B30000C49284601F0D7F840F2011323808023A6
:100B400040F6C41163604FF4FA732846C4E90313F6
:100B5000054901F01AF9054B2046C4E90533E36164
:100B600038BD00BF5F370A087F360A086179FEFF8B
:100B700008B501F057F828B1BDE808400121002070
:100B800001F042B808BD000038B5134B0446994245
:100B900008460AD1656801F045F8854216D0012162
:100BA0002079BDE8384001F02FB801F027FE00227F
:100BB0000A4B01F0B7FF06A3D3E9002301F088FE3A
:100BC00002F020F901216060C0B2EAE738BD00BF41
:100BD0000000000000E06F406179FEFF0000594016
:100BE00010B504460A2001F04FFCA06010BD0000C3
:100BF0002DE9F0410446FFF7F3FF2569A068D4F81A
:100C00000C80A842B8BF28468045D4BFC5EB080079
:100C1000C5EB000001F0F2FD0646A8EB05000F460B
:100C200001F0ECFD02460B463046394601F07AFFF2
:100C300002460B4600200A4901F092FC06A3D3E9C4
:100C4000002301F045FE02F0DDF801216060C0B232
:100C5000BDE8F04100F0D8BF0000000000E06F40A8
:100C60000000F03F0000000070B5C36888B046780F
:100C700005780393036904460293836801934068EF
:100C800001F0BCFD0EA3D3E9002301F04BFF0022CD
:100C90000D4B01F01DFE02F0B5F833462A460090D8
:100CA0000A4904A801F0AEF804A904F1200001F0FB
:100CB00064F804A800F0CDFF08B070BDAFF3008069
:100CC0000000000000E06F4000005940DF360A08D5
:100CD00038B50578044655B1012D13D0144B204684
:100CE000C4E90533E361BDE83840FFF7BDBFFFF756
:100CF0003FFF63690E4A9342F0D0002BEED00123F0
:100D00002380EBE7437843B1012BE7D1FFF770FF76
:100D1000A369002BE2D16370E0E7C169FFF734FFFC
:100D2000A369034A9342D9D0002BD7D06570D5E789
:100D30006179FEFF2DE9F0418AB08D6851F8043BDE
:100D4000044601A80093FFF7FFF96A46294604A864
:100D500000F0A8FD01A8FFF7E1F93C4E3C4FDFF899
:100D6000FC8004A800F0B6FD002869D0684604A9FC
:100D7000FFF732FE3146029802F03AFB054601A821
:100D8000FFF7CCF9684604A94DB9FFF739FE68466C
:100D900000F016FC606101A8FFF7C0F9E1E7FFF77A
:100DA0001BFE3946029802F023FB054601A8FFF717
:100DB000B5F9684604A935B9FFF722FE684600F088
:100DC000FFFBA061E7E7FFF707FE4146029802F04C
:100DD0000FFB054601A8FFF7A1F9684604A935B93C
:100DE000FFF70EFE684600F029FCE061D3E7FFF74D
:100DF000F3FD1849029802F0FBFA054601A8FFF737
:100E00008DF9684604A935B9FFF7FAFD684600F088
:100E100015FC2061BFE7FFF7DFFD0F49029802F0E4
:100E2000E7FA054601A8FFF779F9002D99D1684640
:100E300004A9FFF7E5FD684600F000FCE060AAE7C2
:100E400005A8FFF76BF90AB0BDE8F0810D370A0875
:100E500010370A08C2360A08C6360A0815370A08C3
:100E600008B5024B1B685B6C019308BDD0010608F6
:100E700008B5024B1B689B6C019308BDD0010608A6
:100E800008B5024B1B685B68019308BD9C0106080E
:100E900008B5024B1B68DB68019308BD9C0106087E
:100EA00008B5024B1B685B69019308BD9C010608ED
:100EB00008B5024B1B689B6D019308BD9C01060899
:100EC00008B5024B1B685B6E019308BD9C010608C8
:100ED00008B5024B1B681B68019308BDB0010608EA
:100EE00008B5024B1B685B68019308BDB00106089A
:100EF00008B5024B1B689B68019308BDB00106084A
:100F000008B5024B1B68DB68019308BDB0010608F9
:100F100008B5024B1B681B69019308BDB0010608A8
:100F200008B5024B1B681B6A019308BDB001060897
:100F300008B5024B1B685B6A019308BDB001060847
:100F400008B5024B1B681B6B019308BDB001060876
:100F500008B5024B1B681B6E019308BDAC01060867
:100F600008B5024B1B685B6E019308BDAC01060817
:100F700008B5024B1B689B6E019308BDAC010608C7
:100F800008B5024B1B68DB6E019308BDAC01060877
:100F900008B5024B1B681B6F019308BDAC01060826
:100FA00008B5024B1B685B6F019308BDAC010608D6
:100FB00008B5034B1B68D3F88030019308BD0000CF
:100FC000AC01060808B5024B1B68DB69019308BD3C
:100FD000B401060808B5024B1B681B6A019308BDE3
:100FE000B401060808B5024B1B689B69019308BD54
:100FF000C401060808B5024B1B685B6A019308BD73
:10100000C401060808B5024B1B689B6A019308BD22
:10101000C401060808B5024B1B68DB6A019308BDD2
:10102000C401060808B5024B1B681B6B019308BD81
:10103000C401060808B5024B1B685B6B019308BD31
:10104000C401060808B5024B1B689B6B019308BDE1
:10105000C401060808B5024B1B681B6C019308BD50
:10106000C401060808B5024B1B681B68019308BD44
:10107000D801060808B5024B1B685B68019308BDE0
:10108000D801060808B5024B1B681B69019308BD0F
:10109000D801060808B5024B1B685B69019308BDBF
:1010A000D801060808B5024B1B689B69019308BD6F
:1010B000D801060808B5024B1B68DB69019308BD1F
:1010C000D801060808B5024B1B681B6A019308BDCE
:1010D000D801060808B5024B1B689B6C019308BD3C
:1010E000C001060808B5024B1B685B68019308BD88
:1010F000A801020808B5024B1B689B68019308BD54
:10110000A801020808B5024B1B68DB68019308BD03
:10111000A801020808B5024B1B681B69019308BDB2
:10112000A801020808B5024B1B689B69019308BD22
:10113000A801020808B5024B1B68DB69019308BDD2
:10114000A801020808B5024B1B68DB6A019308BDC1
:10115000A801020808B5024B1B689B6B019308BDF0
:10116000A801020808B5024B1B68DB6B019308BDA0
:10117000A801020808B5024B1B681B68019308BD53
:10118000A401060808B5024B1B685B68019308BD03
:10119000A401060808B5024B1B685B69019308BDF2
:1011A000A401060808B5024B1B68DB6A019308BD61
:1011B000A401060808B5024B1B689B6D019308BD8E
:1011C000A401060808B5034B1B68D3F890300193BF
:1011D00008BD0000A401060808B5034B1B68D3F83E
:1011E0009C30019308BD0000A401060808B5024B1D
:1011F0001B689B68019308BDCC01060808B5024B2B
:101200001B685B69019308BDCC01060808B5024B59
:101210001B681B6B019308BDCC01060808B5024B87
:101220001B68DB6B019308BDCC01060808B5024BB7
:101230001B685B68019308BDC801060808B5024B2E
:101240001B689B68019308BDC801060808B5024BDE
:101250001B68DB68019308BDC801060808B5024B8E
:101260001B681B69019308BDC801060808B5024B3D
:101270001B685B69019308BDC801060808B5024BED
:101280001B689B69019308BDC801060808B5024B9D
:101290001B68DB69019308BDC801060808B5024B4D
:1012A0001B681B6A019308BDC801060808B5024BFC
:1012B0001B681B6B019308BDC801060808B5024BEB
:1012C0001B685B6B019308BDC801060808B5024B9B
:1012D0001B681B6C019308BDC801060808B5024BCA
:1012E0001B685B6C019308BDC801060808B5024B7A
:1012F0001B681B68019308BDA001060808B5024BD6
:101300001B685B68019308BDA001060808B5024B85
:101310001B689B68019308BDA001060808B5024B35
:101320001B685B6A019308BDA001060808B5024B63
:101330001B685B6C019308BDA00106080021FFF744
:1013400029BF7047F8B5064615460C468F18BC42B3
:1013500006D0336830469B6814F8011B9847F6E7BF
:101360002846F8BD0022007CFFF7F2BD0021007C7A
:10137000FFF7F6BD0021007CFFF7FABD0021007CDD
:10138000FFF7FEBD0021007CFFF702BE10B504464A
:10139000142101F0DBF8204610BD000010B54FF419
:1013A0007A73044608460021C4E90113034B114631
:1013B00023602074FFF7FCFD204610BD28370A0883
:1013C000FFF7B6BDFFF7ACBD704710B50446182156
:1013D00001F0BCF8204610BDF8B50E46002400F11F
:1013E0000807051D17F8011D0A22304600F09BFB77
:1013F000AF42044401D12046F8BD002CF2D02E218A
:10140000304600F081FB0444ECE7000010B50446D0
:10141000044B1122002140F8043B01F0BDFF20469F
:1014200010BD00BF50370A080346074A10B543F8FD
:10143000042B01F1100251F8044B914243F8044B84
:10144000F9D10A781A7010BD50370A08024AC0E96B
:10145000002104220275704750370A0810B59DF824
:10146000084044EA0324042344EA024444EA0164B1
:101470004460037510BD000037B5044D05609DF84C
:1014800018500095FFF7EAFF03B030BD50370A0847
:10149000012200F1100313F8101C1846012908D18D
:1014A00053F8041C02EB4102013A03F11003F2D19C
:1014B0007047022904BF53F8041C5218F4E7704720
:1014C0000020704710B50446102101F03FF8204677
:1014D00010BD08B5FFF7F6FF08BD10B5C4687CB1B4
:1014E000206808B1FEF7DFFD237A1BB1606808B100
:1014F000FEF7D9FD2046BDE810400C2101F026B8CA
:1015000010BD10B5044603689B689847A368013B6B
:10151000A3602BB923682046BDE81040DB6818475C
:1015200010BD38B50B68044603604D6843689D42A2
:101530000CD015B16B6801336B60606828B14368EB
:10154000013B43600BB9FFF7DCFF6560204638BD07
:101550000B461146002210B50446C0E90022836004
:101560000BB9204610BDFFF7DCFFFAE703468068A1
:1015700020B30278032A1AD8DFE802F00417021B0E
:10158000052070471B685A684368D05C2D2812D02C
:10159000A0F13003092B0ED974280ED066280CD088
:1015A000A0F16E0358425841704706207047002052
:1015B00070470420704703207047022070470000E6
:1015C00010B50446FFF7D2FF03280DD004281ED023
:1015D00002282BD12268A36852685B68D05CA0F116
:1015E00074035842584110BDA36822685B68546870
:1015F0001C4420460E4901F0FBFE0028F3D0204693
:101600000C4901F0F5FE003818BF0120EBE7226815
:10161000A36852685B68D05CD4180028E3D02046E9
:10162000054901F0E5FE0028E3D1DCE70020DAE718
:101630005E370A085C370A0860370A0810B50446A6
:10164000FFF794FF02280ED0C31EDBB2012B14D883
:101650002268A36850685B680A22BDE81040002138
:10166000184401F059BF2268A36852685B68D05CD7
:10167000A0F174035842584110BD0020FCE700005F
:101680002DE9F047994610230746884600244FF07D
:10169000FF3688B00DEB0300002192460493FFF75C
:1016A00059FD03AB0193424623463946009404A8F2
:1016B0000396FFF757FD051E27DD03981449854261
:1016C000B8BF0546B5F1006FACBF3046280100F049
:1016D00041FF064698B10024002104A8FFF73AFD17
:1016E000334642463946CDE9005404A8FFF73AFD97
:1016F000A04207DD0120CAF80060C9F8005008B018
:10170000BDE8F0873046FEF7CEFC2046F7E700BF85
:101710007C380A082DE9F84F436886680B448846F0
:101720000E4407461C4619464FF00D094FF0090AB2
:10173000B44263D0254615F8012B5C2A2BD1A14277
:1017400007D0A4EB010B18465A4601F00BFE0346E6
:101750005B44B54239D06278752A2AD1A21CB21AEC
:10176000032A32DD4FF0000CA01D04F1050EAE453A
:1017700053D015F8011FA1F130025FFA82FBBBF1D3
:10178000090F05D9A1F16102052A07D8A1F1570275
:1017900042EA0C1CEBE728460446C9E7A1F14102E6
:1017A000052A12D8A1F13702F2E7014603F801CB6E
:1017B000F2E76E2A1CD00ED8622A13D007D82F2A3F
:1017C00011D05C2A0FD0222A0DD0002023E0662AF7
:1017D000FBD10C2207E0722A0DD0742AF5D183F8D0
:1017E00000A001E008221A70A11C08460133D3E7CB
:1017F0004FF00A02F7E783F80090F5E7A14206D020
:10180000641A1846224601F0ADFD03462344012028
:10181000A3EB0803BB60BDE8F88FBCF17F0FC4D910
:101820002146B9E7F8B504461546002700EB011636
:10183000B44210D02378032B08D129462046FFF765
:1018400069FF48B1A368EF541034F1E7002BFBD1D6
:10185000A268AB54F8E70120F8BD00000B46114622
:10186000002210B50446C0E900220D48C4E9020276
:10187000A3B11A78032A06D082B90A6850685A6858
:10188000825C6E2A07D00A68586852689B680244D6
:101890001B1AA260E3602046FFF743FE204610BDFE
:1018A0005F370A0838B500250B4604461146C0E9E3
:1018B0000055C0E90255C0E904554BB11A78012A18
:1018C00006D103F11002DB6882604361FFF729FE55
:1018D000204638BD10B54369044663B18068013BBA
:1018E000E0601030A0602061636113B1FFF7D0FDAC
:1018F000A060012000E0184610BD000038B50023AC
:101900000446036010200D46FEF7C7FB28B10123F3
:10191000C0E90133024BC56003602060204638BD3A
:1019200070370A08F0B504460E460C20274987B0E8
:10193000154600F00DFE014618B10023C0E9003342
:10194000037203A80291FFF7D9FF029A42B9C4E9D2
:101950000022A26003A8FEF7E1FB204607B0F0BD1D
:10196000002329460193304601ABFFF789FE18B9E1
:10197000C4E90000A060EDE71449681C029F00F074
:10198000E9FD029B786058680028F1D02A4631466C
:1019900001F0DAFC0122029B01991A7218685A6858
:1019A000FFF740FF0028E3D0029B19680493039BD4
:1019B000059313B15A6801325A60204604AAFFF712
:1019C000C7FD05A8FEF7AAFBC4E700BF7C380A08DC
:1019D000014B024A1A607047F000002084370A0861
:1019E000002340681A46FFF721BC0022022140680C
:1019F000FFF72CBC002240681146FFF71FBC0022F5
:101A000040681146FFF72ABC002340681A46194671
:101A1000FFF72CBC002340681A461946FFF72EBC7E
:101A200000214068FFF752BC00214068FFF756BC18
:101A30000022406881F00101FFF728BC00224068C5
:101A4000FFF734BC002240681146FFF737BC002284
:101A500040681146FFF722BC70B515468EB00446AB
:101A600008A8FFF7D3FC1122002103A801F094FC81
:101A70000026284601F0CEFC0A4B009681B25B6836
:101A8000284603AAFFF726FB30B131462046FFF770
:101A9000DDFC20460EB070BD204603A9FFF7C4FC54
:101AA000F7E700BF74050020024B034A1A600022CA
:101AB0005A607047F400002090370A08F8B50646CF
:101AC0000D4600248F18BD420CD0336830469B6809
:101AD00015F8011B9847031E01DB1C44F3E7002C9B
:101AE00008BF1C462046F8BD70B505460C460846A2
:101AF00049B101F08FFC2B68024621462846BDE81B
:101B00007040DB68184770BD03689B68184738B59C
:101B10000D210546FFF7F8FF0A2104462846FFF786
:101B2000F3FF204438BD0023012A98BF0A2230B5B4
:101B30008BB00C468DF8243009A92546B4FBF2F48D
:101B400004FB1253DBB2092B94BF30333733DBB2C3
:101B5000AA4201F8013DF0D9FFF7C6FF0BB030BD36
:101B60002DE9F04186B000AF05460E46381D142120
:101B700014463B60FFF7D2FB13280ED82846391DC8
:101B8000FFF7B2FF04461EB12846FFF7C0FF04442A
:101B900020461837BD46BDE8F08100F1080323F068
:101BA0000703E846ADEB030D2246411C3B6868463F
:101BB000FFF7B4FB69462846FFF796FF0446C54683
:101BC000E1E710B50446FFF7ADFA844208D01CB136
:101BD000BDE81040FFF78EBABDE81040FFF792BA9B
:101BE00010BD70B505460E461446FFF79BFA50B17E
:101BF00044EA062444EA0540FFF774FABDE8704061
:101C0000E720FFF797BA70BD10B50C46FFF782FAD0
:101C1000FFF788FA28B124B1BDE81040E720FFF7AC
:101C200089BA10BDFFF78EBA0022014B9A60704747
:101C3000FC00002070B5002604460D4640F8086FF1
:101C4000FFF70EF928462570FFF7BCF920466660BD
:101C500070BD10B504460068FFF750FB204610BD6C
:101C600010B50446006808B1FFF748FB0023C4E93B
:101C70000133236010BD38B504460D4600680131BC
:101C8000FFF744FB10B1C4E90005012038BD10B5D1
:101C90000368044623B143688B4201D3012010BD81
:101CA0002046FFF7E8FF0028F9D0A368002BF5D104
:101CB00022681370F2E770B50E46114604461546C9
:101CC000FFF7E5FF20B92046FFF7CAFF204670BDA9
:101CD0002A4631462068A56001F036FB00212268C3
:101CE000A368D154F2E738B5002304460D46C0E995
:101CF00000338360037339B1084601F08BFB29463A
:101D000002462046FFF7D7FF204638BD38B50546C6
:101D100000680C4668B16A688B689A4207D3096804
:101D200001F070FBA368AB600023A36038BDFFF730
:101D3000E5FA23682B6063686B60A368AB600023DF
:101D4000C4E90033F1E7884210B50B46044604D0DD
:101D5000096821B19A68FFF7AEFF204610BDFFF772
:101D60007FFFFAE7002310B50446C0E90033836023
:101D70000373FFF7E8FF204610BD884210B5044604
:101D800001D0FFF7C3FF204610BD38B505460C460D
:101D900049B1084601F03EFB214602462846FFF7BE
:101DA0008AFF284638BDFFF75BFFFAE7002313B52B
:101DB00004468DF80410C0E900338360037301A961
:101DC0008DF80530FFF7E1FF204602B010BD70B579
:101DD00005460E4609B9002070BD6AB184681444F6
:101DE0002146FFF754FF0028F5D02868AB6831463C
:101DF000184401F007FBAC600120EDE78A68096830
:101E0000FFF7E5BF0EB4FFB509AD55F8047B0446F6
:101E10002B463A46052102A80195FFF77FFA0646B0
:101E20000B492046FFF75FFF31462046FFF72FFFA3
:101E3000206830B12B463A46711C0195FFF76EFAC7
:101E4000A060204604B0BDE8F04003B0704700BF7A
:101E50005F370A0802220020044B1A60044B054A2F
:101E60001860988098719A60FFF78CB9180100206B
:101E70000C0100200000FFFF08B50020FFF7C6F9A5
:101E800028B1FFF7BBF980F00100C0B208BD012006
:101E9000FCE710B50020FFF70BF80446A0B9FFF7E8
:101EA00069F9012810D12046FFF784F960B9FFF7DE
:101EB000E3FF10B9FFF79AF9F9E7FFF7DDFFBDE897
:101EC00010400020FEF7F4BF204610BD1FB5FFF7FD
:101ED000E0FF10220021684601F05EFA002168460A
:101EE000FEF7EEFF009805B05DF804FB024B1A68A0
:101EF000024B1A60704700BF000000201C01002048
:101F0000704741747047704708B5007CFFF7A2F82E
:101F100020EAE07008BD08B5007CFFF773F820EAFE
:101F2000E07008BD08B5007CFFF77CF840EAE0707F
:101F300008BD08B5007CFFF76DF840EAE07008BD09
:101F4000007CFFF777B870B5467C04460D462EB18D
:101F50002946207CBDE87040FFF74CB8007CFFF7B5
:101F600079F80028F4DC304670BD10B50446142121
:101F700000F0ECFA204610BD4FF0000C10B50446FE
:101F8000084611464FF47A72C4E901C2044A20742B
:101F90002260012262741A46FFF724F8204610BD21
:101FA000E8370A0838B50C4D2978BFF35B8F11F07C
:101FB00001040FD12846FEF778F858B12146074BA7
:101FC000074A0848FFF7D8FF2846FEF773F8064887
:101FD00001F0B4F9034838BD20010020A801002019
:101FE000240100202C020020071F0A0841747047BA
:101FF0007047704708B50021007CFFF753F840EAAE
:10200000E07008BD08B50121007CFFF74BF840EAFD
:10201000E07008BD08B5007CFFF73CF820EAE070EE
:1020200008BD08B5007CFFF72DF820EAE07008BD78
:1020300038B50446007C0D46FFF72CF8002801DC7B
:10204000607C28B12946207CFFF734F820EAE07054
:1020500038BD007CFFF736B810B50446142100F0F7
:1020600075FA204610BD704710B54FF47A730446D8
:1020700008460021C4E90113044B207423600123A6
:1020800011466374FEF7EEFF204610BD18380A08AB
:102090000022007CFEF7EEBF10B50446142200219A
:1020A00001F07AF9054B20466360054BE36040F28E
:1020B000011323818123238210BD00BF7002002001
:1020C0007103002030B50E4D87B001A8FFF7E4FF83
:1020D0002978BFF35B8F11F001040ED12846FDF77C
:1020E000E4FF50B1214601AA0648FFF7BDFF28468C
:1020F000FDF7E0FF044801F021F9024807B030BDC8
:102100004002002048020020F11F0A0810B50446D2
:102110001422002101F040F9054B20466360054B75
:10212000E36040F2011323818123238210BD00BFAD
:10213000F2030020F304002010B50E4C86B001A875
:10214000FFF7E4FF2378BFF35B8FDB070ED4204655
:10215000FDF7ABFF50B1012101AA0748FFF784FF4B
:102160002046FDF7A7FF054801F0E8F8024806B051
:1021700010BD00BF440200205C02002067200A0856
:10218000002240681146FFF769B8F0B5154689B0DE
:1021900011220E460446002103A801F0FDF828464E
:1021A00001F038F9002781B273682846009703AA26
:1021B000FEF790FF30B139462046FFF747F9204639
:1021C00009B0F0BD204603A9FFF72EF9F7E700227A
:1021D00040681146FFF762B8002240681146FFF7D9
:1021E0006DB800224068FFF761B80022406881F0B6
:1021F0000101FFF74BB8002340681A461946FFF764
:102200003DB8002340681A461946FFF72FB8002250
:1022100040681146FFF712B8002202214068FFF71C
:1022200015B8002340681A46FFF700B80422024B95
:102230005A60024A1A6070477405002048380A083C
:10224000014B1860704700BF0400002008B5134B15
:1022500043B1FFF737FF03681B699847002801DD8A
:10226000AFF300800E4B43B1FFF79CFE03681B6980
:102270009847002801DDAFF300800A4B0BB1AFF3A4
:102280000080094B43B1FFF757FF03681B6998476C
:10229000002801DDAFF3008008BD00BF0000000092
:1022A00000000000000000000000000008B5FFF77B
:1022B000CDFFFEF7F5FD014B186008BD9405002029
:1022C0000548064A08B5121A054901F03DF8054BC4
:1022D000054A1A6008BD00BF0040024004400240A9
:1022E000A0390A08004002401E1C279A002307B5A7
:1022F0001A466FF077010093FEF76EFF03B05DF8AA
:1023000004FB000007B543880A2B08D0502B0BD1E3
:10231000094B1B684BB103B05DF804EB1847FFF79E
:10232000E5FF03B05DF804FB00231A466FF0770168
:102330000093FEF751FFF4E780050020002110B55F
:102340001148FEF7F3FF114B1A68114B9A420CBF6C
:10235000012200220F4B1A7001D0FFF7B1FFFEF7E8
:102360008FFD044601F020F80B4B13B12046AFF36C
:10237000008000210848FEF751FFBDE81040002111
:102380000648FEF71FBF00BF41220A080040024076
:102390001E1C279A7C0500200000000005230A0867
:1023A000024B986808B1FEF763BD704788050020AE
:1023B000172870B5044601D9002070BDA0F10D03A7
:1023C000022B0BD9012824D800F08EF80021007CC4
:1023D000FEF7E6FD80F00100C0B2EEE7124E317864
:1023E000BFF35B8F11F001050DD13046FDF75DFEA7
:1023F00048B129460D48FFF71DFC3046FDF75AFE4F
:102400000B4800F09BFF094B1878FEF7E3FD00280E
:10241000D2D1123C012C05D8FFF7C4FD007CFEF799
:1024200011FED7E70120C8E78405002088050020B9
:10243000A1230A08172838B504460D460AD8FF29F3
:1024400008D0FFF7B5FF28B129462046BDE838403F
:10245000FEF74EBD38BD38B504460D46FEF750FDBB
:10246000FF2810D0062804D84D2323FA00F0C30714
:1024700009D42046FFF79CFF28B129462046BDE835
:102480003840FEF745BD38BD10B5044609289CBF4D
:102490000A34A4B22046FFF78BFF50B10321204637
:1024A000FEF71EFD032804D12046BDE81040FEF7CC
:1024B00047BD002010BD7047002370B52025438024
:1024C0001423084E04460380314685600561284682
:1024D00000F040F831466060284600F03BF8E060CC
:1024E000204670BD7C380A0830B50E4D87B029787B
:1024F000BFF35B8F11F0010411D12846FDF7D5FD24
:1025000068B101A8FFF7D8FF214601AA0648FEF7E7
:1025100045FF2846FDF7CEFD044800F00FFF0248B6
:1025200007B030BD980500209C050020B7240A089C
:10253000002307B51A46194600930348FEF79CFF8F
:1025400003B05DF804FB00BFB0050020FDF7A9BD96
:10255000FDF7A3BDFDF7A3BD81F0004102E000BF80
:1025600083F0004330B54FEA41044FEA430594EA53
:10257000050F08BF90EA020F1FBF54EA000C55EA8E
:10258000020C7FEA645C7FEA655C00F0E2804FEA5F
:102590005454D4EB5555B8BF6D420CDD2C4480EA41
:1025A000020281EA030382EA000083EA010180EA71
:1025B000020281EA0303362D88BF30BD11F0004FBF
:1025C0004FEA01314FF4801C4CEA113102D04042F5
:1025D00061EB410113F0004F4FEA03334CEA133330
:1025E00002D0524263EB430394EA050F00F0A78048
:1025F000A4F10104D5F1200E0DDB02FA0EFC22FA43
:1026000005F2801841F1000103FA0EF2801843FA36
:1026100005F359410EE0A5F120050EF1200E012A27
:1026200003FA0EFC28BF4CF0020C43FA05F3C01865
:1026300051EBE37101F0004507D54FF0000EDCF1DE
:10264000000C7EEB00006EEB0101B1F5801F1BD387
:10265000B1F5001F0CD349085FEA30004FEA3C0C8B
:1026600004F101044FEA445212F5800F80F09A8081
:10267000BCF1004F08BF5FEA500C50F1000041EB85
:10268000045141EA050130BD5FEA4C0C404141EB89
:102690000101013C28BFB1F5801FE9D291F0000F84
:1026A00004BF01460020B1FA81F308BF2033A3F133
:1026B0000B03B3F120020CDA0C3208DD02F1140C2A
:1026C000C2F10C0201FA0CF021FA02F10CE002F165
:1026D0001402D8BFC2F1200C01FA02F120FA0CFC5E
:1026E000DCBF41EA0C019040E41AA2BF01EB0451A7
:1026F000294330BD6FEA04041F3C1CDA0C340EDCA5
:1027000004F11404C4F1200220FA04F001FA02F3E7
:1027100040EA030021FA04F345EA030130BDC4F1A5
:102720000C04C4F1200220FA02F001FA04F340EA9A
:102730000300294630BD21FA04F0294630BD94F04B
:10274000000F83F4801306BF81F480110134013D32
:102750004EE77FEA645C18BF7FEA655C29D094EAA3
:10276000050F08BF90EA020F05D054EA000C04BF21
:102770001946104630BD91EA030F1EBF002100200C
:1027800030BD5FEA545C05D14000494128BF41F0AB
:10279000004130BD14F580043CBF01F5801130BD0F
:1027A00001F0004545F0FE4141F470014FF000009A
:1027B00030BD7FEA645C1ABF194610467FEA655C4B
:1027C0001CBF0B46024650EA013406BF52EA0335ED
:1027D00091EA030F41F4002130BD00BF90F0000FDB
:1027E00004BF0021704730B54FF4806404F1320417
:1027F0004FF000054FF0000150E700BF90F0000FD0
:1028000004BF0021704730B54FF4806404F13204F6
:1028100010F0004548BF40424FF000013EE700BFC6
:1028200042004FEAE2014FEA31014FEA02701FBF56
:1028300012F07F4393F07F4F81F06051704732F088
:102840007F4208BF704793F07F4F04BF41F40021DF
:10285000704730B54FF4607401F0004521F000413D
:102860001CE700BF50EA010208BF704730B54FF0C7
:1028700000050AE050EA010208BF704730B511F0C8
:10288000004502D5404261EB41014FF4806404F100
:1028900032045FEA915C3FF4D8AE4FF003025FEA86
:1028A000DC0C18BF03325FEADC0C18BF033202EB0A
:1028B000DC02C2F1200300FA03FC20FA02F001FA64
:1028C00003FE40EA0E0021FA02F11444BDE600BF07
:1028D00070B54FF0FF0C4CF4E06C1CEA11541DBFB6
:1028E0001CEA135594EA0C0F95EA0C0F00F0DEF881
:1028F0002C4481EA030621EA4C5123EA4C5350EA66
:10290000013518BF52EA033541F4801143F48013B6
:1029100038D0A0FB02CE4FF00005E1FB02E506F047
:102920000042E0FB03E54FF00006E1FB03569CF09C
:10293000000F18BF4EF0010EA4F1FF04B6F5007FA2
:1029400064F5407404D25FEA4E0E6D4146EB060614
:1029500042EAC62141EA55514FEAC52040EA5E509D
:102960004FEACE2EB4F1FD0C88BFBCF5E06F1ED847
:10297000BEF1004F08BF5FEA500E50F1000041EB7E
:10298000045170BD06F0004646EA010140EA02002B
:1029900081EA0301B4EB5C04C2BFD4EB0C0541EA4D
:1029A000045170BD41F480114FF0000E013C00F362
:1029B000AB8014F1360FDEBF002001F0004170BD86
:1029C000C4F10004203C35DA0C341BDC04F114049F
:1029D000C4F1200500FA05F320FA04F001FA05F22B
:1029E00040EA020001F0004221F0004110EBD370F8
:1029F00021FA04F642EB06015EEA430E08BF20EA24
:102A0000D37070BDC4F10C04C4F1200500FA04F3C6
:102A100020FA05F001FA04F240EA020001F0004158
:102A200010EBD37041F100015EEA430E08BF20EACB
:102A3000D37070BDC4F1200500FA05F24EEA020E13
:102A400020FA04F301FA05F243EA020321FA04F042
:102A500001F0004121FA04F220EA020000EBD370F9
:102A60005EEA430E08BF20EAD37070BD94F0000FF9
:102A70000FD101F00046400041EB010111F4801F2D
:102A800008BF013CF7D041EA060195F0000F18BFDE
:102A9000704703F00046520043EB030313F4801F1A
:102AA00008BF013DF7D043EA0603704794EA0C0FD4
:102AB0000CEA135518BF95EA0C0F0CD050EA4106EA
:102AC00018BF52EA4306D1D181EA030101F0004167
:102AD0004FF0000070BD50EA410606BF104619468F
:102AE00052EA430619D094EA0C0F02D150EA01369B
:102AF00013D195EA0C0F05D152EA03361CBF1046DC
:102B000019460AD181EA030101F0004141F0FE417A
:102B100041F470014FF0000070BD41F0FE4141F4FE
:102B2000780170BD70B54FF0FF0C4CF4E06C1CEAFE
:102B300011541DBF1CEA135594EA0C0F95EA0C0FB3
:102B400000F0A7F8A4EB050481EA030E52EA03356E
:102B50004FEA013100F088804FEA03334FF080558F
:102B600045EA131343EA12634FEA022245EA1115BC
:102B700045EA10654FEA00260EF000419D4208BF6D
:102B8000964244F1FD0404F5407402D25B084FEA1A
:102B90003202B61A65EB03055B084FEA32024FF4C6
:102BA00080104FF4002CB6EB020E75EB030E22BF23
:102BB000B61A754640EA0C005B084FEA3202B6EBE3
:102BC000020E75EB030E22BFB61A754640EA5C0092
:102BD0005B084FEA3202B6EB020E75EB030E22BF22
:102BE000B61A754640EA9C005B084FEA3202B6EB23
:102BF000020E75EB030E22BFB61A754640EADC00E2
:102C000055EA060E18D04FEA051545EA16754FEA43
:102C100006164FEAC30343EA52734FEAC2025FEA61
:102C20001C1CC0D111F4801F0BD141EA00014FF0F0
:102C300000004FF0004CB6E711F4801F04BF0143C1
:102C40000020B4F1FD0C88BFBCF5E06F3FF6AFAEDD
:102C5000B5EB030C04BFB6EB020C5FEA500C50F16D
:102C6000000041EB045170BD0EF0004E4EEA1131F0
:102C700014EB5C04C2BFD4EB0C0541EA045170BDF7
:102C800041F480114FF0000E013C90E645EA060E3B
:102C90008DE60CEA135594EA0C0F08BF95EA0C0F69
:102CA0003FF43BAF94EA0C0F0AD150EA01347FF4B1
:102CB00034AF95EA0C0F7FF425AF104619462CE788
:102CC00095EA0C0F06D152EA03353FF4FDAE1046EB
:102CD000194622E750EA410618BF52EA43067FF43C
:102CE000C5AE50EA41047FF40DAF52EA43057FF4CC
:102CF000EBAE12E74FF0FF3C06E000BF4FF0010CD7
:102D000002E000BF4FF0010C4DF804CD4FEA410C3A
:102D10007FEA6C5C4FEA430C18BF7FEA6C5C1BD007
:102D200001B050EA410C0CBF52EA430C91EA030F88
:102D300002BF90EA020F0020704710F1000F91EAE5
:102D4000030F58BF994208BF90422CBFD8176FEAB3
:102D5000E37040F0010070474FEA410C7FEA6C5C81
:102D600002D150EA013C07D14FEA430C7FEA6C5C88
:102D7000D6D152EA033CD3D05DF8040B704700BFB4
:102D80008446104662468C461946634600E000BF02
:102D900001B5FFF7B7FF002848BF10F1000F01BDD4
:102DA0004DF808EDFFF7F4FF0CBF012000205DF89F
:102DB00008FB00BF4DF808EDFFF7EAFF34BF012024
:102DC00000205DF808FB00BF4DF808EDFFF7E0FFBD
:102DD00094BF012000205DF808FB00BF4DF808ED0E
:102DE000FFF7CEFF94BF012000205DF808FB00BF75
:102DF0004DF808EDFFF7C4FF34BF012000205DF857
:102E000008FB00BF4FEA410212F5001215D211D59E
:102E10006FF47873B3EB625212D94FEAC12343F0D7
:102E2000004343EA505311F0004F23FA02F018BF59
:102E3000404270474FF00000704750EA013005D122
:102E400011F0004008BF6FF0004070474FF00000E5
:102E5000704700BF80F0004002E000BF81F00041F9
:102E600042001FBF5FEA410392EA030F7FEA226C30
:102E70007FEA236C6AD04FEA1262D2EB1363C1BFC0
:102E8000D218414048404140B8BF5B42192B88BF2F
:102E9000704710F0004F40F4000020F07F4018BF52
:102EA000404211F0004F41F4000121F07F4118BF72
:102EB000494292EA030F3FD0A2F1010241FA03FC1A
:102EC00010EB0C00C3F1200301FA03F100F0004302
:102ED00002D5494260EB4000B0F5000F13D3B0F1CA
:102EE000807F06D340084FEA310102F10102FE2A39
:102EF00051D2B1F1004F40EBC25008BF20F00100A9
:102F000040EA03007047490040EB0000013A28BF47
:102F1000B0F5000FEDD2B0FA80FCACF1080CB2EBCA
:102F20000C0200FA0CF0AABF00EBC2505242184348
:102F3000BCBFD0401843704792F0000F81F40001ED
:102F400006BF80F400000132013BB5E74FEA4103C0
:102F50007FEA226C18BF7FEA236C21D092EA030F2C
:102F600004D092F0000F08BF0846704790EA010FA6
:102F70001CBF0020704712F07F4F04D1400028BFD3
:102F800040F00040704712F100723CBF00F50000B5
:102F9000704700F0004343F0FE4040F400007047EB
:102FA0007FEA226216BF08467FEA23630146420297
:102FB00006BF5FEA412390EA010F40F480007047AA
:102FC0004FF0000304E000BF10F0004348BF404250
:102FD0005FEA000C08BF704743F0964301464FF08C
:102FE00000001CE050EA010208BF70474FF00003E8
:102FF0000AE000BF50EA010208BF704711F0004329
:1030000002D5404261EB41015FEA010C02BF8446F8
:103010000146002043F0B64308BFA3F18053A3F557
:103020000003BCFA8CF2083AA3EBC25310DB01FA9E
:1030300002FC634400FA02FCC2F12002BCF1004F22
:1030400020FA02F243EB020008BF20F001007047B3
:1030500002F1200201FA02FCC2F1200250EA4C0007
:1030600021FA02F243EB020008BF20EADC7070474D
:103070004FF0FF0C1CEAD0521EBF1CEAD15392EA5B
:103080000C0F93EA0C0F6FD01A4480EA010C400237
:1030900018BF5FEA41211ED04FF0006343EA501091
:1030A00043EA5111A0FB01310CF00040B1F5000FD3
:1030B0003EBF490041EAD3715B0040EA010062F182
:1030C0007F02FD2A1DD8B3F1004F40EBC25008BF6C
:1030D00020F00100704790F0000F0CF0004C08BF8A
:1030E00049024CEA502040EA51207F3AC2BFD2F157
:1030F000FF0340EAC250704740F400004FF0000365
:10310000013A5DDC12F1190FDCBF00F0004070479E
:10311000C2F10002410021FA02F1C2F1200200FADC
:1031200002FC5FEA310040F1000053EA4C0308BFA3
:1031300020EADC70704792F0000F00F0004C02BFF4
:10314000400010F4000F013AF9D040EA0C0093F06F
:10315000000F01F0004C02BF490011F4000F013BC9
:10316000F9D041EA0C018FE70CEAD15392EA0C0F37
:1031700018BF93EA0C0F0AD030F0004C18BF31F0A2
:10318000004CD8D180EA010000F00040704790F078
:10319000000F17BF90F0004F084691F0000F91F01C
:1031A000004F14D092EA0C0F01D142020FD193EAE2
:1031B0000C0F03D14B0218BF084608D180EA01006A
:1031C00000F0004040F0FE4040F40000704740F046
:1031D000FE4040F4400070474FF0FF0C1CEAD05214
:1031E0001EBF1CEAD15392EA0C0F93EA0C0F69D070
:1031F000A2EB030280EA010C49024FEA402037D0DB
:103200004FF0805343EA111143EA10130CF00040D1
:103210008B4238BF5B0042F17D024FF4000C8B42C1
:1032200024BF5B1A40EA0C00B3EB510F24BFA3EBA1
:10323000510340EA5C00B3EB910F24BFA3EB910371
:1032400040EA9C00B3EBD10F24BFA3EBD10340EACB
:10325000DC001B0118BF5FEA1C1CE0D1FD2A3FF611
:1032600050AF8B4240EBC25008BF20F001007047C6
:103270000CF0004C4CEA50207F32C2BFD2F1FF0369
:1032800040EAC250704740F400004FF00003013A9A
:1032900037E792F0000F00F0004C02BF400010F43E
:1032A000000F013AF9D040EA0C0093F0000F01F052
:1032B000004C02BF490011F4000F013BF9D041EA74
:1032C0000C0195E70CEAD15392EA0C0F08D14202A7
:1032D0007FF47DAF93EA0C0F7FF470AF084676E77A
:1032E00093EA0C0F04D14B023FF44CAF08466EE753
:1032F00030F0004C18BF31F0004CCAD130F0004221
:103300007FF45CAF31F000437FF43CAF5FE700BF78
:103310004FEA40024FEA41037FEA226C02D15FEAA2
:10332000402C08D17FEA236C02D15FEA412C02D104
:103330004FF0000070474FF0010070470023014636
:103340001A46184600F0F2B80A44914200F1FF33E1
:1033500000D1704710B511F8014B914203F8014FAD
:10336000F9D110BD884210B501EB020402D98442A4
:10337000234607D8431EA14208D011F8012B03F8B9
:10338000012FF8E7014602448A4200D110BD13F82C
:10339000014D02F8014DF7E703460244934200D184
:1033A000704703F8011BF9E738B50D4B04461D685B
:1033B000AB6B7BB91820FDF799FF0A4A0A4BA8634B
:1033C000C0E90023094B012283600B238381002382
:1033D000C0E904230022AB6B1C615A6138BD00BFF9
:1033E000040000200E33CDAB34126DE6ECDE050098
:1033F00010F8012B11F8013B012A28BF9A42F7D09F
:10340000D01A7047034611F8012B03F8012B002A4C
:10341000F9D17047034613F8012B002AFBD1181A83
:10342000013870472DE9F0478C468646394E604694
:103430001CF8014BA55D15F00805F8D12D2C33D1F2
:103440004FF001089CF8004000F1020C002B5CD00A
:10345000102B0CD1302C0AD19CF8000000F0DF00BA
:1034600058284DD110239CF801400CF1020C002685
:1034700008F10047013FB7FBF3F9304603FB197A27
:10348000A4F13005092D18D82C46A34224DD751C63
:1034900007D081451DD301D1A2451ADB012600FBCF
:1034A00003401CF8014BEBE72B2C08BF9CF80040B5
:1034B000A84608BF00F1020CC8E7A4F14105192D88
:1034C00001D8373CE1E7A4F16105192D04D8573C38
:1034D000DBE74FF0FF36E4E7731C06D122233846C2
:1034E000CEF8003042B9BDE8F087B8F1000F00D047
:1034F0004042002AF7D00EB10CF1FF311160F2E723
:103500003024002BB3D10823B1E7302CA4D00A23F8
:10351000ADE700BF7E380A0813460A460146024856
:103520000068FFF77FBF00BF040000202DE9F843CB
:10353000DFF8BC800646D8F800001F460D469146CD
:1035400000F058F8264B1C6834B9264C1C60264BFA
:1035500013B11B68C4F8883063681F2B07DDD8F8E7
:10356000000000F049F84FF0FF30BDE8F8835EB38B
:10357000D4F8880088B91D4B23B9D8F8000000F0B2
:103580003AF8F0E74FF48470FDF7B0FE0028F4D06D
:103590000023C0E94033C4F8880001226368022E8A
:1035A00040F8239002FA03F200EB8301D0F80031D7
:1035B00043EA0203C0F80031C1F8807002BFD0F8BE
:1035C00004311A43C0F804216368D8F800005A1C7B
:1035D0000233626044F8235000F00EF80020C4E784
:1035E00054060020C805002000000000ED120A0863
:1035F00068000020704770477047000021000A08EB
:1036000061000A0889000A088D000A08000000000D
:10361000736D6172746C6967687400646F6F7200B7
:103620007B224661696C223A2025647D007B22481A
:10363000756D69642850657263656E7429223A2538
:103640002E32662C202254656D70282A4329223A96
:10365000252E32667D007B2274223A25642C226C52
:1036600069676874223A25732C2022646F6F722276
:103670003A25732C20226374223A256C647D007BEA
:103680007D007B22436C6F7365223A25642C2022D7
:10369000646F6F7250726F78696D697479223A2520
:1036A0002E32662C202253656E736F72223A252EBD
:1036B00032667D007B22616C657274223A2025643B
:1036C0007D006D696E006D617800646F6F7250727D
:1036D0006F78696D69747900737461747573007BB8
:1036E000224C30223A25642C224C31223A25642C7B
:1036F0002262223A25642C2273223A25642C226D00
:10370000223A25642C224D223A25647D006F6E00FA
:103710006175746F006272696768746E65737300B7
:10372000000000000000000043130A088D130A087F
:1037300065130A0845130A086D130A0875130A0869
:103740007D130A0885130A0800000000000000002D
:10375000D9130A08C9130A08CB130A08302E3000FF
:1037600066616C736500000000000000000000004E
:10377000BF140A08C5140A08DB140A08D3140A087F
:10378000C1140A0861707000000000000000000011
:10379000E1190A08EB190A08F5190A08FF190A08BD
:1037A000091A0A08151A0A08211A0A08291A0A0801
:1037B000311A0A083D1A0A08451A0A084F1A0A0857
:1037C000591A0A0825592D256D2D25645425483A86
:1037D000254D3A2553257A0061736374696D650040
:1037E0000000000000000000011F0A086B1F0A080B
:1037F000471F0A08BD1A0A08171F0A08331F0A08BC
:10380000251F0A08411F0A08031F0A08091F0A0882
:103810000000000000000000F31F0A0859200A08F9
:1038200031200A08BD1A0A0823200A08F51F0A08D1
:1038300005200A0853200A0815200A08ED1F0A0867
:10384000000000000000000023220A0819220A08D4
:103850000F220A0881210A0803220A08F7210A0810
:10386000211A0A08291A0A08EB210A08E3210A0882
:10387000D9210A08CF210A088B210A08000020203C
:103880002020202020202028282828282020202010
:1038900020202020202020202020202020208810D0
:1038A0001010101010101010101010101010040430
:1038B0000404040404040404101010101010104137
:1038C00041414141410101010101010101010101A8
:1038D000010101010101010101101010101010423D
:1038E0004242424242020202020202020202020278
:1038F0000202020202020202021010101020000056
:1039000000000000000000000000000000000000B7
:1039100000000000000000000000000000000000A7
:103920000000000000000000000000000000000097
:103930000000000000000000000000000000000087
:103940000000000000000000000000000000000077
:103950000000000000000000000000000000000067
:103960000000000000000000000000000000000057
:103970000000000000000000000000000000000047
:10398000F9030A08D1190A08A91A0A08291C0A0801
:10399000551E0A08ED1E0A082D220A0831250A08BC
:0439A0000000000023
:1039A400D8370A08080000200000000000000000CA
:1039B4000000000000000000000000000000000003
:1039C40000000000000000000000000000000000F3
:1039D40000000000000000000000000000000000E3
:1039E40000000000000000000000000000000000D3
:1039F40000000000000000000000000000000000C3
:0C3A040000000000000000005906002037
:103A1000FFFFFFFF00000102030405060708090A73
:103A20000B0C0D0E0F101112131415161718191A6E
:083A30001B1C1D1E1F202800B5
:043A38007856341276
:04000005080A0020C5
:00000001FF
