:02000002D0002C
:1040000000400D0078760D00000006000C00050150
:0840100004019A080000000001
:0440180008720D001D
:1040200009480A49884208B505D0094A824202D0A7
:10403000121A02F091FF0748074A0021121A02F0F3
:10404000B3FF014808BD00BFB8E40320E4750D00CC
:1040500024E5032024E50320EDE7032070B5074E97
:10406000074C02F001FAA41BA4080025A54200D1C8
:1040700070BD56F8043B98470135F7E7B8750D0059
:10408000DC750D0000F026B808B500F01BF9BDE89E
:10409000084002F0A1B901F0A1B901F09FB901F007
:1040A000A5B901F0A3B90078B0FA80F040097047D3
:1040B0000123037070470EB403B503AB002153F81E
:1040C000042B019301F05BFE02B05DF804EB03B03A
:1040D0007047000008B50121002002F035FA0121E7
:1040E000072002F031FA012001F07AFEFF2211468A
:1040F000104601F085FE02F0E9F84FF4165102F087
:10410000D9F8034800F0D4F9024B00221A6008BD28
:1041100028E5032024E5032038B5046805467CB172
:104120006368013B63605BB9236820469B689847DE
:10413000A368013BA3601BB923682046DB6898474E
:10414000284638BD0B68036013B15A6801325A60C3
:1041500070470000F0B597B002F0B8F803681B692B
:104160009847002840F3A180514908A801F0C7FEF4
:1041700002F0ACF803681B69984780B102F0A6F81A
:1041800003685B699847C1B210A801F01DFF10A930
:1041900008A801F041FF10A801F066FEE8E70899C1
:1041A0000191084602F03EFF0199424E424F434DB5
:1041B000024605A801F080FC079C059B0C9306A90C
:1041C0000DA8FFF7BFFF0CAA214610A801F034FC90
:1041D0000DA8FFF7A1FF10A801F046FC00285BD056
:1041E000139C109B039311A904A8FFF7ABFF214672
:1041F00003AA0CA801F0FCFB04A8FFF78DFF0E98A2
:10420000314602F0FDFE04460DA8FFF785FFB4B964
:10421000149C109B039311A904A8FFF793FF214658
:1042200003AA0CA801F05FFA04A8FFF775FF244861
:104230000CA900F09FFC0DA8FFF76EFFCBE7139CC5
:10424000109B039311A904A8FFF77CFF214603AA42
:104250000CA801F0CDFB04A8FFF75EFF0E983946CD
:1042600002F0CEFE04460DA8FFF756FF002CB2D197
:10427000149C109B039311A904A8FFF763FF214628
:1042800003AA0CA801F02FFA04A8FFF745FF0CA918
:10429000284600F0CFFDCEE711A8FFF73DFF06A8A6
:1042A000FFF73AFF08A801F0DFFD17B0F0BD00BF2F
:1042B00097730D001C720D0027720D003CE5032062
:1042C00070E50320F0B52DED028B46488FB000F06D
:1042D00021FB4448F0EE408A00F0DCFA4148B0EEA1
:1042E000408A00F0D9FAF4EE688AF1EE10FA09D6A5
:1042F000B4EE488AF1EE10FA04D6B4EE400AF1EEBC
:1043000010FA0DD701F0E2FF37490122FFF7D3FE83
:1043100001F0DCFF01F009FD0FB0BDEC028BF0BD38
:1043200001F0D4FF044618EE900A02F0F5FA0246B6
:104330000B4618EE100ACDE9022302F0EDFADDE992
:104340000223CDE900012949294D2046FFF7B3FE9C
:1043500001F0BCFF01F0E9FC00F004FE0446FFF7A9
:10436000F9FE244800F0ACFB00F0FCFD06462248B4
:1043700000F0D4FC29680A2291FBF2F302FB13132C
:1043800023BB2B6001F0A2FF074601F0ADFE1B49E5
:10439000059006A801F0F3FD069B194902930AA8AF
:1043A00001F0EDFD361B0A99029B059A00910196DA
:1043B00014493846FFF77FFE0AA801F055FD06A80C
:1043C00001F052FD01F082FF01F0AFFC2B680133D8
:1043D0002B6000F0C7FD6434201A9DD001F026F850
:1043E0009AE700BF28E503202C720D0039720D00FA
:1043F00024E5032070E503203CE5032090E503203D
:1044000060E5032062720D0008B50021012000F074
:1044100041FF06230B220221054800F042F805481F
:1044200000F07AFABDE80840034800F039BC00BF4C
:1044300028E5032070E503203CE5032010B5036860
:104440002F2B044604D9074A00210A2000F0F2FE6F
:1044500023681F2B83BF03F01F03034823604FF023
:10446000A04010BD554F0D000003005007B501904E
:1044700001A8FFF7E3FF019A01239340C0F8083534
:1044800003B05DF804FB07B5019001A8FFF7D6FF64
:10449000019BD0F81005D84000F0010003B05DF892
:1044A00004FB10B5037201238171C271037410BD46
:1044B0002DE9F04105461E4C8079DFF87880002117
:1044C00002F042F8AE792378BFF35B8F13F0010F4F
:1044D0000AD12046FFF7E7FD30B100F05BFDC8F8D8
:1044E00000002046FFF7E4FDD8F8003036019F5D5C
:1044F0002378BFF35B8FDB074FEA47170AD40C48DA
:10450000FFF7D1FD30B100F045FDC8F800000848C4
:10451000FFF7CEFDD8F8003033445B7803F01F037B
:1045200043EA0700FFF7A2FF0023EB60BDE8F0813C
:10453000A0E50320A4E503202DE9F04F044685B053
:1045400000F010FDE368834284BF0023E360237C16
:104550002BB9E368C01AB0F5FA6FC0F0608100258E
:10456000257400F0FFFCB04E25602571E060A7794E
:104570003378AE4DBFF35B8F13F0010F09D1304696
:10458000FFF791FD28B100F005FD28603046FFF7E8
:104590008FFD2B683F0113F807803378BFF35B8FE3
:1045A000D9074FEA481809D49F48FFF77CFD28B186
:1045B00000F0F0FC28609C48FFF77AFD2B681F4450
:1045C000787800F01F0040EA0800FFF74FFFFA205C
:1045D00000F02CFFA079012101F0B6FFA779337814
:1045E000BFF35B8FDA0709D48F48FFF75CFD28B172
:1045F00000F0D0FC28608C48FFF75AFD2B683F0183
:10460000DB5D4FEA43183378BFF35B8FDB0709D4D8
:104610008548FFF748FD28B100F0BCFC28608248BF
:10462000FFF746FD2B681F4403A87B7803F01F03A8
:1046300043EA08030393FFF701FF039A0123934022
:10464000C0F80C35142000F0F1FE00F077FFA779D8
:104650003378BFF35B8FD80709D47348FFF723FD86
:1046600028B100F097FC28606F48FFF721FD2B6808
:104670003F0113F807803378BFF35B8FD9074FEA08
:10468000481809D46848FFF70EFD28B100F082FCF5
:1046900028606548FFF70CFD2B681F44787800F010
:1046A0001F0040EA0800FFF7E1FE282000F052FC5E
:1046B000A079DFF87481002101F046FF0027012373
:1046C000BA4600934FF0000994F806B03378BFF370
:1046D0005B8FDA0709D44046FFF7E5FC28B100F00C
:1046E00059FC28604046FFF7E3FC2B684FEA0B1BA0
:1046F00013F80B305B0101933378BFF35B8FDB075B
:1047000009D44046FFF7CFFC28B100F043FC2860F5
:104710004046FFF7CDFC2B685B4493F801B0019B4A
:104720000BF01F0B4BEA030B5846FFF7ACFE584645
:10473000FFF7A9FE009B834209D109F101095FFA45
:1047400089F9012000F006FCB9F1FF0FBCD194F803
:1047500006B03378BFF35B8FD80709D44046FFF724
:10476000A2FC28B100F016FC28604046FFF7A0FC30
:104770002B684FEA0B1B13F80B305B010093337867
:10478000BFF35B8FD90709D44046FFF78CFC28B1F3
:1047900000F000FC28604046FFF78AFC2B685B4471
:1047A00093F801B0009B0BF01F0B4BEA030B58462C
:1047B000FFF769FE5846FFF766FEB9F1FF0FC3B277
:1047C000009318D0032F11D9FA070FD44FEADA0259
:1047D0000AF1010AA35C5B00DBB2A354217A4945CC
:1047E0003CBF43F00103A3545FFA8AFA0137FFB2DA
:1047F000552F7FF467AF00F0A3FEBAF1270F10D951
:10480000637820781844A3781844E378184423790F
:10481000C0B2C31A5842584105B0BDE8F08F01201C
:10482000FAE70020F8E700BFA0E50320A4E5032095
:1048300010B50446FFF780FE20B3E3790B2B1BD0A5
:10484000153B012B1ED8A378DFED106A03F07F0221
:1048500007EE102AE27807EE902AB8EEC77AF8EE53
:10486000E77A1B06E7EE267AB2EE047A87EE870A2D
:1048700007D5B1EE400A04E0A37800EE103AB8EE96
:10488000400A10BD9FED020AFBE700BF0000804315
:104890000000C07FFFF7CCBF08B5FFF7C9FFF2EEFD
:1048A000027A20EE270AF1EE047A80EE277A9FED55
:1048B000020A37EE000A08BD0000004210B50446A7
:1048C000FFF73AFEF0B1E3790B2B15D0153B012B26
:1048D00018D82378DFED0D6A07EE103A637807EEFB
:1048E000903AB8EE477AF8EEE77AE7EE267AB2EE3B
:1048F000047A87EE870A10BD237800EE103AB8EEEE
:10490000400AF8E79FED020AF5E700BF0000804388
:104910000000C07FFFF7D2BF38B500F12005044684
:104920000C49284601F0EBFA40F201132380802362
:10493000636040F6C4114FF4FA73C4E903132846C8
:10494000054901F02FFB054BE361C4E9053320461F
:1049500038BD00BF97730D008B720D006179FEFFAB
:1049600008B501F06EFA28B1BDE808400121002029
:1049700001F059BA08BD000038B5134B99420446FE
:1049800008460AD1656801F05CFA854216D02079A4
:104990000121BDE8384001F046BA01F0ABFF0B4BF6
:1049A000002202F03BF906A3D3E9002302F00CF841
:1049B00002F0A4FA01216060C0B2EAE738BD00BF8E
:1049C0000000000000E06F406179FEFF00005940E8
:1049D00010B50446132001F0E1FDA06010BD0000F9
:1049E0002DE9F0410446FFF7F3FF2569A068D4F8EC
:1049F0000C80A842B8BF28468045D4BFC5EB08004C
:104A0000C5EB000001F076FF0646A8EB05000F4657
:104A100001F070FF02460B463046394602F0FEF8C0
:104A200002460B4600200A4901F016FE06A3D3E910
:104A3000002301F0C9FF02F061FA01216060BDE8C6
:104A4000F041C0B201F0EFB90000000000E06F409B
:104A50000000F03F0000000070B588B0C3684678E1
:104A600005780393036902938368019304464068C1
:104A700001F040FF10A3D3E9002302F0CFF80C4B64
:104A8000002201F0A1FF02F039FA33462A460090D5
:104A9000084904A801F0C4FA04A904F1200001F0B7
:104AA00079FA04A801F0E0F908B070BDAFF3008016
:104AB000000059408E720D000000000000E06F40C1
:104AC00038B50578044655B1012D13D0144BE36178
:104AD000C4E905332046BDE83840FFF7BDBFFFF706
:104AE0003FFF63690E4A9342F0D0002BEED00123C2
:104AF0002380EBE7437843B1012BE7D1FFF770FF49
:104B0000A369002BE2D16370E0E7C169FFF734FFCE
:104B1000A369034A9342D9D0002BD7D06570D5E75B
:104B20006179FEFF37B5CD6851F8043B0093044628
:104B300001A8FFF707FB6A462946204600F058FF08
:104B400001A8FFF7E9FA204603B030BD37B50D697B
:104B500051F8043B0093044601A8FFF7F3FA6A46B4
:104B60002946204600F0BFFD01A8FFF7D5FA2046F0
:104B700003B030BD2DE9F0418AB08D6851F8043B97
:104B80000093044601A8FFF7DDFA6A46294604A807
:104B900000F052FF01A8FFF7BFFA3C4E3C4FDFF890
:104BA000FC8004A800F060FF002869D004A96846D2
:104BB000FFF7B8FF3146029802F022FA054601A835
:104BC000FFF7AAFA04A968464DB9FFF7BFFF684688
:104BD00000F0C0FD606101A8FFF79EFAE1E7FFF772
:104BE000A1FF3946029802F00BFA054601A8FFF72B
:104BF00093FA04A9684635B9FFF7A8FF684600F0A4
:104C0000A9FDA061E7E7FFF78DFF4146029802F09A
:104C1000F7F9054601A8FFF77FFA04A9684635B9F8
:104C2000FFF794FF684600F0D3FDE061D3E7FFF79C
:104C300079FF1849029802F0E3F9054601A8FFF749
:104C40006BFA04A9684635B9FFF780FF684600F0A3
:104C5000BFFD2061BFE7FFF765FF0F49029802F033
:104C6000CFF9054601A8FFF757FA002D99D104A9FD
:104C70006846FFF76BFF684600F0AAFDE060AAE710
:104C800005A8FFF749FA0AB0BDE8F081BC720D0033
:104C9000BF720D00CF720D00D3720D00C4720D00F3
:104CA00038B500F1240504460B49284601F027F9E0
:104CB000012323708023636040F6C4114FF4FA731C
:104CC000C4E903132846054901F06CF9044B20465A
:104CD000C4E9073338BD00BF97730D008B720D0018
:104CE0006179FEFF10B50446122001F057FCA06068
:104CF00010BD00001FB504464368027806496846A7
:104D000001F08EF9694604F1240001F043F9684688
:104D100001F0AAF804B010BDD7720D002DE9F843D8
:104D200006780446002E3AD0012E30D1FFF7DAFF84
:104D30002569A068E768A842B8BF28468742D4BF63
:104D4000C5EB0700C5EB000001F0D4FD8046781BE1
:104D5000894601F0CFFD02460B464046494601F028
:104D60005DFF314B002202F0A1F83146054640B10B
:104D7000072001F0FAFB01F0B7F90023606123700E
:104D800005E001F050F82946072001F0EEFB274B23
:104D90002046C4E90733BDE8F843FFF7ABBFFFF790
:104DA000A1FF2569A068D4F80C80A842B8BF2846A6
:104DB0008045D4BFC5EB0800C5EB000001F09AFDAB
:104DC0000646A8EB05000F4601F094FD0B4602468F
:104DD0003946304601F022FF0F46064602F08EF8B3
:104DE000606001F081F96369A061C31A0A2B09DDD3
:104DF00001F06CFA0E490122FFF75DF901F066FA45
:104E000000F093FF3946084B0022304602F04EF87E
:104E1000014608B10121B7E7072001F0A6FB01F028
:104E200063F901236061AAE70000E03F6179FEFFBA
:104E3000F8720D002DE9F0418AB08D6851F8043BFD
:104E40000093044601A8FFF77DF96A46294604A8A5
:104E500000F0F2FD01A8FFF75FF9324E324FDFF8A4
:104E6000D08004A800F000FE002855D004A96846B0
:104E7000FFF758FE3146029802F0C2F8054601A835
:104E8000FFF74AF904A968464DB9FFF75FFE684687
:104E900000F09EFC206101A8FFF73EF9E1E7FFF773
:104EA00041FE3946029802F0ABF8054601A8FFF72B
:104EB00033F904A9684635B9FFF748FE684600F0A3
:104EC00087FCE060E7E7FFF72DFE4146029802F01D
:104ED00097F8054601A8FFF71FF904A9684635B9F8
:104EE000FFF734FE684600F073FC2062D3E7FFF75B
:104EF00019FE0E49029802F083F8054601A8FFF753
:104F00000BF9002DADD104A96846FFF71FFE6846D6
:104F100000F020FCE061BEE705A8FFF7FDF80AB04D
:104F2000BDE8F081CF720D00D3720D0014730D0037
:104F300006730D0008B5024B1B685B6C019308BD3E
:104F40004802030008B5024B1B685B68019308BD6B
:104F50001802030008B5024B1B68DB68019308BD0B
:104F60001802030008B5024B1B685B69019308BD7A
:104F70001802030008B5024B1B689B6D019308BD26
:104F80001802030008B5024B1B685B6E019308BD55
:104F90001802030008B5024B1B681B68019308BD8B
:104FA0002C02030008B5024B1B685B68019308BD27
:104FB0002C02030008B5024B1B689B68019308BDD7
:104FC0002C02030008B5024B1B68DB68019308BD87
:104FD0002C02030008B5024B1B681B69019308BD36
:104FE0002C02030008B5024B1B681B6A019308BD25
:104FF0002C02030008B5024B1B685B6A019308BDD5
:105000002C02030008B5024B1B681B6B019308BD03
:105010002C02030008B5024B1B681B6A019308BDF4
:105020002802030008B5024B1B685B6A019308BDA8
:105030002802030008B5024B1B689B6A019308BD58
:105040002802030008B5024B1B68DB6A019308BD08
:105050002802030008B5024B1B681B6B019308BDB7
:105060002802030008B5024B1B685B6B019308BD67
:105070002802030008B5024B1B681B6C019308BD96
:105080002802030008B5024B1B685B69019308BD49
:105090006402030008B5024B1B689B68019308BDBE
:1050A0006802030008B5024B1B68DB68019308BD6A
:1050B0006802030008B5024B1B68DB69019308BD59
:1050C0003002030008B5024B1B681B6A019308BD40
:1050D0003002030008B5024B1B681B68019308BD32
:1050E0003C02030008B5024B1B68DB68019308BD56
:1050F0003C02030008B5024B1B681B69019308BD05
:105100003C02030008B5024B1B685B69019308BDB4
:105110003C02030008B5024B1B689B69019308BD64
:105120003C02030008B5024B1B68DB69019308BD14
:105130003C02030008B5024B1B681B6A019308BDC3
:105140003C02030008B5024B1B689B6A019308BD33
:105150003C02030008B5024B1B681B68019308BDA5
:105160004C02030008B5024B1B685B68019308BD45
:105170004C02030008B5024B1B681B69019308BD74
:105180004C02030008B5024B1B685B69019308BD24
:105190004C02030008B5024B1B689B69019308BDD4
:1051A0004C02030008B5024B1B68DB69019308BD84
:1051B0004C02030008B5024B1B681B6A019308BD33
:1051C0004C02030008B5024B1B685B68019308BDE5
:1051D0006002030008B5024B1B689B68019308BD81
:1051E0006002030008B5024B1B68DB68019308BD31
:1051F0006002030008B5024B1B681B69019308BDE0
:105200006002030008B5024B1B689B69019308BD4F
:105210006002030008B5024B1B68DB69019308BDFF
:105220006002030008B5024B1B68DB6A019308BDEE
:105230006002030008B5024B1B685B6B019308BD5D
:105240006002030008B5024B1B689B6B019308BD0D
:105250006002030008B5024B1B68DB6B019308BDBD
:105260006002030008B5024B1B681B68019308BD70
:105270002002030008B5024B1B685B68019308BD60
:105280002002030008B5024B1B685B69019308BD4F
:105290002002030008B5024B1B68DB6A019308BDBE
:1052A0002002030008B5024B1B689B6D019308BDEB
:1052B0002002030008B5034B1B68D3F88830019324
:1052C00008BD00002002030008B5034B1B68D3F89B
:1052D0009430019308BD00002002030008B5024B82
:1052E0001B689B68019308BD4402030008B5024B8C
:1052F0001B685B69019308BD4402030008B5024BBB
:105300001B681B6B019308BD4402030008B5024BE8
:105310001B68DB6B019308BD4402030008B5024B18
:105320001B685B68019308BD4002030008B5024B8F
:105330001B689B68019308BD4002030008B5024B3F
:105340001B68DB68019308BD4002030008B5024BEF
:105350001B681B69019308BD4002030008B5024B9E
:105360001B685B69019308BD4002030008B5024B4E
:105370001B689B69019308BD4002030008B5024BFE
:105380001B68DB69019308BD4002030008B5024BAE
:105390001B681B6A019308BD4002030008B5024B5D
:1053A0001B681B6B019308BD4002030008B5024B4C
:1053B0001B685B6B019308BD4002030008B5024BFC
:1053C0001B681B6C019308BD4002030008B5024B2B
:1053D0001B685B6C019308BD4002030008B5024BDB
:1053E0001B681B68019308BD1C02030008B5024B33
:1053F0001B685B68019308BD1C02030008B5024BE3
:105400001B689B68019308BD1C02030008B5024B92
:105410001B685B6A019308BD1C02030008B5024BC0
:105420001B685B6C019308BD1C0203000021FFF7A1
:1054300029BF0000024800230360FFF77BBD00BFC7
:10544000A8E50320002240681146FFF79FBF002215
:1054500040681146FFF7AABF40680022FFF79EBFD1
:105460004068002281F00101FFF788BF00234068F7
:105470001A461946FFF77ABF002340681A461946B4
:10548000FFF76CBF002240681146FFF75FBF0022A4
:1054900040681146FFF74ABF406800220221FFF72B
:1054A0004DBF002340681A46FFF738BF024B032266
:1054B0005A60024A1A607047ACE5032024730D005D
:1054C0007047F8B5064615460C468F18BC4206D004
:1054D000336814F8011B9B6830469847F6E7284666
:1054E000F8BD007C0022FFF795BD007C0021FFF78E
:1054F00099BD007C0021FFF79DBD007C0021FFF7D6
:10550000A1BD007C0021FFF7A5BD10B51421044604
:1055100001F098F8204610BD10B54FF47A73044698
:1055200008460021C4E90113034B2360207411468F
:10553000FFF7A0FD204610BD60730D00FFF75ABDB8
:10554000FFF750BD704710B51821044601F07AF8F6
:10555000204610BDF0B5037D062B8DB00E4600F140
:1055600004074FF0000412D000F1080515F8011DE2
:105570000A22304600F0E5FBAF42044419D0002C6B
:10558000F4D02E21304600F0CDFB0444EEE72F236B
:105590006A4639460A208DF80040FFF773FD6846D9
:1055A00001F040FD33680246DB68694630469847A3
:1055B000044620460DB0F0BD10B5054B044611223F
:1055C00040F8043B002101F0EFFC204610BD00BF75
:1055D00088730D000346074A10B543F8042B01F108
:1055E000100251F8044B43F8044B9142F9D10A7868
:1055F0001A7010BD88730D0010B59DF8084044EA7C
:10560000032343EA024242EA016104234160037535
:1056100010BD13B5CB7800938B784A780978FFF7E3
:10562000EBFF02B010BD00F11003012213F8101CB3
:105630000129184608D153F8041C02EB4102013A33
:1056400003F11003F2D17047022904BF53F8041C80
:105650005218F4E770470020704710B51021044637
:1056600000F0F0FF204610BD08B5FFF7F6FF08BDBB
:1056700010B5C4687CB1206808B1FEF712FD237A2A
:105680001BB1606808B1FEF70CFD20460C21BDE897
:10569000104000F0D7BF10BD10B5036804469B68EA
:1056A0009847A368013BA3602BB923682046DB68B9
:1056B000BDE81040184710BD38B50B6803604D6851
:1056C00043689D4204460CD015B16B6801336B6092
:1056D000606828B14368013B43600BB9FFF7DCFF0A
:1056E0006560204638BD0B461146002210B5C0E962
:1056F0000022044683600BB9204610BDFFF7DCFF93
:10570000FAE78368EBB11A78032A1AD8DFE802F0C7
:105710000417021B0520704702685B685268D05C62
:105720002D2812D0A0F13003092B0ED974280ED0E9
:1057300066280CD0A0F16E035842584170470620ED
:1057400070470020704704207047032070470220F4
:105750007047000010B50446FFF7D3FF03280DD0B3
:1057600004281ED002282BD12268A36852685B68E7
:10577000D05CA0F174035842584110BDA368226860
:105780005B6854681C440F49204601F039FC00282E
:10579000F3D00D49204601F033FC003818BF01203A
:1057A000EBE72268A36852685B68D05CD4180028D5
:1057B000E3D00649204601F023FC0028E3D1DCE7D2
:1057C0000020DAE796730D0094730D0098730D00B6
:1057D00010B50446FFF795FF02280ED0C31EDBB2BA
:1057E000012B14D82268A36850685B68BDE810409C
:1057F0000A220021184401F097BC2268A36852686D
:105800005B68D05CA0F174035842584110BD002081
:10581000FCE700002DE9F047994688B010230746C1
:1058200088460DEB03000021924604930024FFF705
:1058300009FD03AB01934FF0FF3600942346424627
:10584000394604A80396FFF705FD051E27DD0398DA
:1058500014498542B8BF0546B5F1006FACBF30466C
:10586000280100F0F3FE064698B1002104A80024A8
:10587000FFF7E8FCCDE9005433464246394604A818
:10588000FFF7E8FCA04207DDCAF800600120C9F874
:10589000005008B0BDE8F0873046FEF702FC204615
:1058A000F7E700BFB4740D002DE9F84F4368866830
:1058B0000B4488460E4407461C4619464FF00D0916
:1058C0004FF0090AB44263D0254615F8012B5C2A33
:1058D0002BD1A14207D0A4EB010B18465A4601F088
:1058E00049FB03465B44B54239D06278752A2AD118
:1058F000A21CB21A032A32DDA01D04F1050E4FF0DE
:10590000000CAE4553D015F8011FA1F130025FFA2B
:1059100082FBBBF1090F05D9A1F16102052A07D865
:10592000A1F1570242EA0C1CEBE728460446C9E7FE
:10593000A1F14102052A12D8A1F13702F2E703F8DA
:1059400001CB0146F2E76E2A1CD00ED8622A13D092
:1059500007D82F2A11D05C2A0FD0222A0DD0002080
:1059600023E0662AFBD10C2207E0722A0DD0742AAC
:10597000F5D183F800A001E008221A70A11C0133C0
:105980000846D3E74FF00A02F7E783F80090F5E7FF
:10599000A14206D0641A1846224601F0EBFA0346EB
:1059A0002344A3EB0803BB600120BDE8F88FBCF1E2
:1059B0007F0FC4D92146B9E7F8B50446154600EB78
:1059C00001160027B44210D02378032B08D12946B2
:1059D0002046FFF769FF48B1A368EF541034F1E7A0
:1059E000002BFBD1A268AB54F8E70120F8BD000002
:1059F00038B50023C0E9003304460E48C4E9020369
:105A0000A9B10B78032B06D08BB9136858684B6883
:105A1000C35C6E2B07D013684D6858688B682844A8
:105A20005B1BA060E36011462046FFF745FE204661
:105A300038BD00BF97730D0038B500250B46C0E98F
:105A40000055C0E90255C0E90455044611464BB162
:105A50001A78012A06D103F11002DB6882604361E3
:105A6000FFF72AFE204638BD10B54369044663B1EE
:105A70008068E060013B1030A0602061636113B179
:105A8000FFF7D1FDA060012000E0184610BD000026
:105A900038B500230446036010200D46FEF7FBFADC
:105AA00028B10123C0E90133024B0360C5602060C7
:105AB000204638BDA8730D00F0B5044687B00E46E9
:105AC0000C202749154600F0BFFD014618B1002300
:105AD000C0E90033037203A80291FFF7D9FF029ACD
:105AE00042B9C4E90022A26003A8FEF715FB2046D4
:105AF00007B0F0BD00230193294601AB3046FFF704
:105B000089FE18B9C4E90000A060EDE71449029FBE
:105B1000681C00F09BFD029B786058680028F1D05B
:105B20002A46314601F018FA029B019918680122B1
:105B30001A725A68FFF740FF0028E3D0029B1968E9
:105B40000493039B059313B15A6801325A6004AA67
:105B50002046FFF7C8FD05A8FEF7DEFAC4E700BF40
:105B6000B4740D00014B024A1A607047B4E503207B
:105B7000BC730D00002340681A46FFF7CFBB406896
:105B800000220221FFF7DABB002240681146FFF72E
:105B9000CDBB002240681146FFF7D8BB0023406808
:105BA0001A461946FFF7DABB002340681A46194621
:105BB000FFF7DCBB40680021FFF700BC4068002114
:105BC000FFF704BC4068002281F00101FFF7D6BB5B
:105BD00040680022FFF7E2BB002240681146FFF751
:105BE000E5BB002240681146FFF7D0BB2DE9F0432A
:105BF000002495B016460D460746FFF7DDFC21460A
:105C000018220EA8009401F0CFF94023CDE90C34FE
:105C100021466B460CAA3046FFF744FA044600289A
:105C200046D1024601216868FFF790FB02218046B9
:105C300022466868FFF78AFB009E81462146002EB7
:105C400036D0002934D17368022B03D00A2B0BD035
:105C5000F669F4E7B8F1000F04D0716938460431F1
:105C6000FFF7D7FC4146F3E7B9F1000F01D14946F0
:105C7000EEE77469102201A801F096F906238DF869
:105C8000143001AD04F108031834186859682A4625
:105C900003C20833A3421546F7D101A906A807ADF0
:105CA000FFF798FC0FCD3C1D0FC42B682370DEE777
:105CB0000098FFF7EFF9384615B0BDE8F083000013
:105CC000024B034A1A6000225A607047B8E503206D
:105CD000C8730D00F8B506460D468F180024BD4266
:105CE0000CD0336815F8011B9B6830469847031E9B
:105CF00001DB1C44F3E7002C08BF1C462046F8BD1E
:105D000013B50446084659B1019101F08BF9236897
:105D10000199DB680246204602B0BDE810401847F2
:105D200002B010BD03689B68184738B50D210546C1
:105D3000FFF7F8FF0A2104462846FFF7F3FF204447
:105D400038BD30B58BB000238DF82430012A98BFC0
:105D50000A2209AC0D46B1FBF2F101FB125303F02C
:105D6000FF03092B94BF30333733DBB2AA4204F868
:105D7000013DEFD92146FFF7C3FF0BB030BD2DE940
:105D8000F04186B000AF05460E46381D142114467A
:105D90003B60FFF73BFB13280ED8391D2846FFF761
:105DA000AFFF04461EB12846FFF7BFFF044420465C
:105DB0001837BD46BDE8F08100F1080323F0070362
:105DC000E846ADEB030D2246411C3B686846FFF7F1
:105DD0001DFB69462846FFF793FF0446C546E1E7E9
:105DE00010B50446FFF70EFA844208D01CB1BDE896
:105DF0001040FFF7EFB9BDE81040FFF7F3B910BD51
:105E000070B505460E461446FFF7FCF950B144EA5A
:105E1000062040EA0540FFF7D5F9BDE87040E720CD
:105E2000FFF7F8B970BD10B50C46FFF7E3F9FFF7BF
:105E3000E9F928B124B1BDE81040E720FFF7EAB93D
:105E400010BDFFF7EFB90000014B00229A607047C8
:105E5000C0E5032010B5044608462170FFF72AF973
:105E600000236360204610BD10B504460068FFF7AC
:105E7000BDFA204610BD10B50446006808B1FFF712
:105E8000B5FA0023C4E90133236010BD38B50446D8
:105E90000D4600680131FFF7B1FA10B1C4E9000501
:105EA000012038BD10B50368044623B143688B4216
:105EB00001D3012010BD2046FFF7E8FF0028F9D0EC
:105EC000A368002BF5D122681370F2E737B50D46B1
:105ED000114601920446FFF7E5FF019A28B92046D2
:105EE000FFF7C9FF204603B030BDA26029462068F5
:105EF00001F032F82268A3680021D154F2E70023B0
:105F000013B5C0E9003304468360037341B108460A
:105F1000019101F087F8019902462046FFF7D6FF6C
:105F2000204602B010BD38B5054600680C4668B181
:105F30006A688B689A4207D3096801F06BF8A36816
:105F4000AB600023A36038BDFFF750FA23682B60D5
:105F500063686B60A368AB600023C4E90033F1E7BA
:105F6000884210B5044605D00B682BB18A681946E3
:105F7000FFF7ACFF204610BDFFF77DFFFAE710B535
:105F800000230446C0E9003383600373FFF7E8FF92
:105F9000204610BD884210B5044601D0FFF7C3FF6C
:105FA000204610BD13B5044659B10846019101F0D1
:105FB00039F8019902462046FFF788FF204602B0D3
:105FC00010BDFFF758FFF9E713B500238DF8041053
:105FD000C0E900338360037301A904468DF80530DE
:105FE000FFF7E0FF204602B010BD70B505460E4633
:105FF00009B9002070BD6AB1846814442146FFF7D6
:1060000051FF0028F5D02868AB683146184401F0EC
:1060100001F8AC600120EDE78A680968FFF7E5BF89
:106020000EB470B587B00BAD044655F8042B019241
:106030002B46052104A80395FFF7E8F90B4906460E
:106040002046FFF75CFF31462046FFF72BFF206814
:1060500030B1019A03952B46711CFFF7D7F9A06068
:10606000204607B0BDE8704003B0704797730D003D
:10607000054B02221A60054B054A9A600020186001
:1060800098809871FFF7F6B8DCE50320D0E503208F
:106090000000FFFF08B50020FFF730F928B1FFF737
:1060A00025F980F00100C0B208BD0120FCE710B561
:1060B0000020FEF75FFF0446A0B9FFF7D3F80128E0
:1060C00010D12046FFF7EEF860B9FFF7E3FF10B9F3
:1060D000FFF704F9F9E7FFF7DDFFBDE81040002006
:1060E000FEF748BF204610BD1FB5FFF7E0FF1022A6
:1060F0000021684600F058FF00216846FEF742FF85
:10610000009805B05DF804FB024B1A68024B1A6058
:10611000704700BFB8E40320E0E5032070474174F6
:106120007047704708B5007CFFF70CF820EAE07074
:1061300008BD08B5007CFEF7DDFF20EAE07008BD71
:1061400008B5007CFEF7E6FF40EAE07008BD08B540
:10615000007CFEF7D7FF40EAE07008BD007CFEF748
:10616000E1BF37B5457C04462DB1207C03B0BDE8C6
:106170003040FEF7B7BF007C0191FEF7E3FF002837
:106180000199F2DC284603B030BD10B51421044655
:1061900000F058FA204610BD10B54FF0000C044630
:1061A000084611464FF47A72C4E901C2044A2260DB
:1061B0000122207462741A46FEF78CFF204610BD3F
:1061C00020740D0013B50D4C2178BFF35B8F11F0D7
:1061D000010110D120460191FDF765FF019950B1F1
:1061E000074B084A0848FFF7D7FF2046FDF760FF36
:1061F000064800F0ABFE044802B010BDE4E5032001
:106200006CE60320E8E50320F0E6032023610D009F
:10621000417470477047704708B50021007CFEF755
:10622000B9FF40EAE07008BD08B50121007CFEF727
:10623000B1FF40EAE07008BD08B5007CFEF7A2FFA0
:1062400020EAE07008BD08B5007CFEF793FF20EA65
:10625000E07008BD13B50446007C0191FEF792FF83
:106260000028019901DC607C20B1207CFEF79AFFB8
:1062700020EAE07002B010BD007CFEF79BBF10B5B5
:106280001421044600F0DEF9204610BD10B54FF48D
:106290007A73044608460021C4E90113044B2360C5
:1062A0000123207463741146FEF754FF204610BD8D
:1062B00050740D00007C0022FEF754BF10B514226C
:1062C0000446002100F070FE204610BD10B50F4CB2
:1062D00088B003A8FFF7F2FF2178BFF35B8F11F0BE
:1062E00001010FD120460191FDF7DDFE019948B172
:1062F00003AA0748FFF7CAFF2046FDF7D9FE054865
:1063000000F024FE024808B010BD00BF04E70320DF
:1063100008E7032015620D00002240681146FFF7D0
:1063200015B8002240681146FFF730B800224068D7
:106330001146FFF73BB840680022FFF72FB84068CE
:10634000002281F00101FFF719B8002340681A46C6
:106350001946FFF70BB8002340681A461946FEF7A6
:10636000FDBF002240681146FEF7E0BF40680022F2
:106370000221FEF7E3BF002340681A46FEF7CEBFB6
:10638000024B04225A60024A1A6070471CE703203D
:1063900080740D00014B1860704700BFBCE40320FF
:1063A00008B50B4B43B1FFF791FF03681B69984792
:1063B000002801DDAFF30080064B43B1FFF702FF79
:1063C00003681B699847002801DDAFF3008008BD12
:1063D000000000000000000008B5FFF7E1FFFEF735
:1063E000C1FD014B186008BD38E703200548064A87
:1063F000064908B5121A00F0AFFD054B054A1A60B0
:1064000008BD00BF00F4032004F40320E0750D0074
:1064100000F403201E1C279A07B5002300931A4698
:106420006FF07701FEF750FF03B05DF804FB00004A
:1064300007B543880A2B08D0502B0BD1094B1B689A
:106440004BB103B05DF804EB1847FFF7E5FF03B06D
:106450005DF804FB002300931A466FF07701FEF706
:1064600033FFF4E728E7032010B512480021FEF7B8
:10647000D5FF114B1A68114B9A42114B0CBF0122E8
:1064800000221A7001D0FFF7B1FFFEF75BFD044652
:1064900000F092FD0B4B13B12046AFF300800021BA
:1064A0000848FEF733FFBDE8104007480021FEF71B
:1064B00001BF00BF95630D0000F403201E1C279A46
:1064C00024E703200000000031640D00232813B5E9
:1064D00002D9002002B010BDA0F10B03022B1AD884
:1064E000174C2178BFF35B8F11F001010BD12046CF
:1064F0000191FDF7D8FD019928B11248FFF7AAFCD8
:106500002046FDF7D5FD0F4B1878FEF7DBFD002880
:10651000DFD10120DEE7012809D800F06FF8002163
:10652000007CFEF79FFD80F00100C0B2D2E7093881
:106530000128EED8FFF746FE007CFEF7FBFDF2E7F0
:106540002CE7032030E70320232838B504460D4606
:106550000AD8FF2908D0FFF7B9FF28B129462046FD
:10656000BDE83840FEF726BD38BD38B504460D46B7
:10657000FEF728FDFF2810D0062804D84D2323FA63
:1065800000F0C30709D42046FFF7A0FF28B1294631
:106590002046BDE83840FEF71DBD38BD0D2810B5BA
:1065A00004469CBF0E34A4B22046FFF78FFF50B1C3
:1065B00003212046FEF7F6FC032804D12046BDE85F
:1065C0001040FEF71FBD002010BD704738B50023F6
:1065D0002025438014230446038085600561064915
:1065E000284600F033F804496060284600F02EF891
:1065F000E060204638BD00BFB4740D0030B50E4DCC
:106600002978BFF35B8F11F0010487B011D12846C0
:10661000FDF749FD68B101A8FFF7D8FF01AA21469F
:106620000648FEF779FF2846FDF742FD044800F0D2
:106630008DFC024807B030BD3CE7032040E7032053
:10664000CB650D00FDF72BBDFDF725BDFDF725BD85
:1066500081F0004102E000BF83F0004330B54FEA13
:1066600041044FEA430594EA050F08BF90EA020F80
:106670001FBF54EA000C55EA020C7FEA645C7FEA13
:10668000655C00F0E2804FEA5454D4EB5555B8BF36
:106690006D420CDD2C4480EA020281EA030382EAA7
:1066A000000083EA010180EA020281EA0303362D39
:1066B00088BF30BD11F0004F4FEA01314FF4801C0C
:1066C0004CEA113102D0404261EB410113F0004F1E
:1066D0004FEA03334CEA133302D0524263EB4303D5
:1066E00094EA050F00F0A780A4F10104D5F1200E73
:1066F0000DDB02FA0EFC22FA05F2801841F10001CE
:1067000003FA0EF2801843FA05F359410EE0A5F1A1
:1067100020050EF1200E012A03FA0EFC28BF4CF0D2
:10672000020C43FA05F3C01851EBE37101F0004588
:1067300007D54FF0000EDCF1000C7EEB00006EEB95
:106740000101B1F5801F1BD3B1F5001F0CD349081F
:106750005FEA30004FEA3C0C04F101044FEA445276
:1067600012F5800F80F09A80BCF1004F08BF5FEAFD
:10677000500C50F1000041EB045141EA050130BDDD
:106780005FEA4C0C404141EB0101013C28BFB1F5EF
:10679000801FE9D291F0000F04BF01460020B1FA3A
:1067A00081F308BF2033A3F10B03B3F120020CDA0D
:1067B0000C3208DD02F1140CC2F10C0201FA0CF0EB
:1067C00021FA02F10CE002F11402D8BFC2F1200C50
:1067D00001FA02F120FA0CFCDCBF41EA0C01904006
:1067E000E41AA2BF01EB0451294330BD6FEA04044F
:1067F0001F3C1CDA0C340EDC04F11404C4F120023A
:1068000020FA04F001FA02F340EA030021FA04F34B
:1068100045EA030130BDC4F10C04C4F1200220FAA2
:1068200002F001FA04F340EA0300294630BD21FAE0
:1068300004F0294630BD94F0000F83F4801306BFA6
:1068400081F480110134013D4EE77FEA645C18BF9A
:106850007FEA655C29D094EA050F08BF90EA020F31
:1068600005D054EA000C04BF1946104630BD91EA29
:10687000030F1EBF0021002030BD5FEA545C05D12C
:106880004000494128BF41F0004130BD14F580046B
:106890003CBF01F5801130BD01F0004545F0FE41DF
:1068A00041F470014FF0000030BD7FEA645C1ABF14
:1068B000194610467FEA655C1CBF0B46024650EA4B
:1068C000013406BF52EA033591EA030F41F4002177
:1068D00030BD00BF90F0000F04BF0021704730B5FD
:1068E0004FF4806404F132044FF000054FF00001D2
:1068F00050E700BF90F0000F04BF0021704730B593
:106900004FF4806404F1320410F0004548BF404267
:106910004FF000013EE700BF42004FEAE2014FEABC
:1069200031014FEA02701FBF12F07F4393F07F4F97
:1069300081F06051704732F07F4208BF704793F09A
:106940007F4F04BF41F40021704730B54FF46074AD
:1069500001F0004521F000411CE700BF50EA0102B0
:1069600008BF704730B54FF000050AE050EA010259
:1069700008BF704730B511F0004502D5404261EBC9
:1069800041014FF4806404F132045FEA915C3FF40A
:10699000D8AE4FF003025FEADC0C18BF03325FEAA7
:1069A000DC0C18BF033202EBDC02C2F1200300FA58
:1069B00003FC20FA02F001FA03FE40EA0E0021FA7D
:1069C00002F11444BDE600BF70B54FF0FF0C4CF46B
:1069D000E06C1CEA11541DBF1CEA135594EA0C0F1D
:1069E00095EA0C0F00F0DEF82C4481EA030621EA58
:1069F0004C5123EA4C5350EA013518BF52EA033593
:106A000041F4801143F4801338D0A0FB02CE4FF044
:106A10000005E1FB02E506F00042E0FB03E54FF074
:106A20000006E1FB03569CF0000F18BF4EF0010E6C
:106A3000A4F1FF04B6F5007F64F5407404D25FEA68
:106A40004E0E6D4146EB060642EAC62141EA55511B
:106A50004FEAC52040EA5E504FEACE2EB4F1FD0C5D
:106A600088BFBCF5E06F1ED8BEF1004F08BF5FEADB
:106A7000500E50F1000041EB045170BD06F000468D
:106A800046EA010140EA020081EA0301B4EB5C043A
:106A9000C2BFD4EB0C0541EA045170BD41F4801132
:106AA0004FF0000E013C00F3AB8014F1360FDEBF57
:106AB000002001F0004170BDC4F10004203C35DA33
:106AC0000C341BDC04F11404C4F1200500FA05F3B6
:106AD00020FA04F001FA05F240EA020001F0004257
:106AE00021F0004110EBD37021FA04F642EB0601CD
:106AF0005EEA430E08BF20EAD37070BDC4F10C04F7
:106B0000C4F1200500FA04F320FA05F001FA04F2BA
:106B100040EA020001F0004110EBD37041F10001A6
:106B20005EEA430E08BF20EAD37070BDC4F12005B1
:106B300000FA05F24EEA020E20FA04F301FA05F219
:106B400043EA020321FA04F001F0004121FA04F2C1
:106B500020EA020000EBD3705EEA430E08BF20EA91
:106B6000D37070BD94F0000F0FD101F000464000CB
:106B700041EB010111F4801F08BF013CF7D041EA4D
:106B8000060195F0000F18BF704703F00046520051
:106B900043EB030313F4801F08BF013DF7D043EA22
:106BA0000603704794EA0C0F0CEA135518BF95EAD8
:106BB0000C0F0CD050EA410618BF52EA4306D1D15F
:106BC00081EA030101F000414FF0000070BD50EA7E
:106BD000410606BF1046194652EA430619D094EA08
:106BE0000C0F02D150EA013613D195EA0C0F05D1F2
:106BF00052EA03361CBF104619460AD181EA030146
:106C000001F0004141F0FE4141F470014FF00000FD
:106C100070BD41F0FE4141F4780170BD70B54FF098
:106C2000FF0C4CF4E06C1CEA11541DBF1CEA135518
:106C300094EA0C0F95EA0C0F00F0A7F8A4EB0504FA
:106C400081EA030E52EA03354FEA013100F08880F1
:106C50004FEA03334FF0805545EA131343EA1263BA
:106C60004FEA022245EA111545EA10654FEA00266F
:106C70000EF000419D4208BF964244F1FD0404F528
:106C8000407402D25B084FEA3202B61A65EB030584
:106C90005B084FEA32024FF480104FF4002CB6EB41
:106CA000020E75EB030E22BFB61A754640EA0C00C1
:106CB0005B084FEA3202B6EB020E75EB030E22BF01
:106CC000B61A754640EA5C005B084FEA3202B6EB42
:106CD000020E75EB030E22BFB61A754640EA9C0001
:106CE0005B084FEA3202B6EB020E75EB030E22BFD1
:106CF000B61A754640EADC0055EA060E18D04FEA8F
:106D0000051545EA16754FEA06164FEAC30343EA2E
:106D100052734FEAC2025FEA1C1CC0D111F4801FFB
:106D20000BD141EA00014FF000004FF0004CB6E7F4
:106D300011F4801F04BF01430020B4F1FD0C88BF93
:106D4000BCF5E06F3FF6AFAEB5EB030C04BFB6EB9E
:106D5000020C5FEA500C50F1000041EB045170BD91
:106D60000EF0004E4EEA113114EB5C04C2BFD4EBBE
:106D70000C0541EA045170BD41F480114FF0000E42
:106D8000013C90E645EA060E8DE60CEA135594EABE
:106D90000C0F08BF95EA0C0F3FF43BAF94EA0C0FC1
:106DA0000AD150EA01347FF434AF95EA0C0F7FF436
:106DB00025AF104619462CE795EA0C0F06D152EA8A
:106DC00003353FF4FDAE1046194622E750EA41066E
:106DD00018BF52EA43067FF4C5AE50EA41047FF47F
:106DE0000DAF52EA43057FF4EBAE12E74FF0FF3CE4
:106DF00006E000BF4FF0010C02E000BF4FF0010CB5
:106E00004DF804CD4FEA410C7FEA6C5C4FEA430C2D
:106E100018BF7FEA6C5C1BD001B050EA410C0CBF7C
:106E200052EA430C91EA030F02BF90EA020F0020DE
:106E3000704710F1000F91EA030F58BF994208BF45
:106E400090422CBFD8176FEAE37040F00100704702
:106E50004FEA410C7FEA6C5C02D150EA013C07D159
:106E60004FEA430C7FEA6C5CD6D152EA033CD3D0A4
:106E70005DF8040B704700BF8446104662468C469E
:106E80001946634600E000BF01B5FFF7B7FF0028D1
:106E900048BF10F1000F01BD4DF808EDFFF7F4FFFA
:106EA0000CBF012000205DF808FB00BF4DF808ED85
:106EB000FFF7EAFF34BF012000205DF808FB00BFA8
:106EC0004DF808EDFFF7E0FF94BF012000205DF8CA
:106ED00008FB00BF4DF808EDFFF7CEFF94BF01207F
:106EE00000205DF808FB00BF4DF808EDFFF7C4FF78
:106EF00034BF012000205DF808FB00BF4FEA4102CB
:106F000012F5001215D211D56FF47873B3EB6252FB
:106F100012D94FEAC12343F0004343EA505311F022
:106F2000004F23FA02F018BF404270474FF00000B4
:106F3000704750EA013005D111F0004008BF6FF0F2
:106F4000004070474FF00000704700BF002301462B
:106F50001A46184600F0F2B80A44914200F1FF3395
:106F600000D1704710B511F8014B03F8014F914261
:106F7000F9D110BD884210B501EB020402D9844258
:106F8000234607D8431EA14208D011F8012B03F86D
:106F9000012FF8E7024401468A4200D110BD13F8E0
:106FA000014D02F8014DF7E702440346934200D138
:106FB000704703F8011BF9E738B50D4B1D68AB6B43
:106FC00004467BB91820FEF709FA0A4A0A4BA8635F
:106FD000C0E90023094B83600B2383810122002336
:106FE000C0E90423AB6B00221C615A6138BD00BFAD
:106FF000BCE403200E33CDAB34126DE6ECDE0500AD
:1070000010F8012B11F8013B012A28BF9A42F7D052
:10701000D01A7047034611F8012B03F8012B002A00
:10702000F9D17047034613F8012B002AFBD1181A37
:10703000013870472DE9F0473A4E86468C46604647
:107040001CF8014BA55D15F00805F8D12D2C33D1A6
:107050009CF800404FF0010800F1020C002B5CD0BE
:10706000102B0CD1302C0AD19CF8000000F0DF006E
:1070700058284DD19CF8014010230CF1020C08F166
:107080000047013F0026B7FBF3F9304603FB197AAE
:10709000A4F13005092D18D82C46A34224DD751C17
:1070A00007D081451DD301D1A2451ADB00FB034067
:1070B00001261CF8014BEBE72B2C08BF9CF8004085
:1070C000A84608BF00F1020CC8E7A4F14105192D3C
:1070D00001D8373CE1E7A4F16105192D04D8573CEC
:1070E000DBE74FF0FF36E4E7731C06D12223CEF82E
:1070F0000030384642B9BDE8F087B8F1000F00D043
:107100004042002AF7D00EB10CF1FF311160F2E7D6
:107110003024002BB3D10823B1E7302CA4D00A23AC
:10712000ADE700BFB6740D0013460A46014602489B
:107130000068FFF77FBF00BFBCE403202DE9F843E0
:10714000DFF8B8800646D8F800001F460D46914685
:1071500000F056F8254B1C6834B9254C1C60254BB3
:1071600013B11B68C4F8883063681F2B07DDD8F89B
:10717000000000F047F84FF0FF30BDE8F8834EB351
:10718000D4F8880088B91C4B23B9D8F8000000F067
:1071900038F8F0E74FF48470FEF720F90028F4D0B7
:1071A0000023C0E94033C4F88800636840F82390A6
:1071B00001229A4000EB8301D0F800311343022EE4
:1071C000C0F80031C1F8807002BFD0F804311A4312
:1071D000C0F804216368D8F800005A1C02336260CA
:1071E00044F8235000F00EF80020C6E7E0E7032043
:1071F00054E7032000000000DD530D0020E50320CC
:10720000704770477047000021400D005D400D0041
:1072100085400D0089400D0000000000736D617213
:10722000746C6967687400646F6F72007B224661DA
:10723000696C223A2025647D007B2248756D696463
:107240002850657263656E7429223A252E32662CA9
:10725000202254656D70282A4329223A252E326651
:107260007D007B2274223A25642C226C6967687445
:10727000223A25732C2022646F6F72223A25732CD8
:1072800020226374223A256C647D007B7D007B2282
:107290004C30223A25642C224C31223A25642C228F
:1072A00062223A25642C2273223A25642C226D2214
:1072B0003A25642C224D223A25647D006F6E0061D0
:1072C00075746F006272696768746E657373006DC0
:1072D000696E006D6178007B22436C6F7365223AA2
:1072E00025642C2022646F6F7250726F78696D690B
:1072F0007479223A25667D007B22616C6572742266
:107300003A2025647D00646F6F7250726F78696DEA
:107310006974790073746174757300000000000073
:1073200000000000A3540D0099540D008F540D006F
:1073300085540D0079540D006D540D00B55B0D00A2
:10734000BD5B0D0061540D0059540D004F540D00EC
:1073500045540D00ED5B0D00000000000000000032
:10736000C1540D000B550D00E3540D00C3540D0026
:10737000EB540D00F3540D00FB540D0003550D00AC
:10738000000000000000000055550D0045550D009F
:1073900047550D00302E300066616C7365000000AB
:1073A000000000000000000055560D005B560D0067
:1073B00071560D0069560D0057560D006170700032
:1073C0000000000000000000755B0D007F5B0D00F9
:1073D000895B0D00935B0D009D5B0D00A95B0D00AB
:1073E000B55B0D00BD5B0D00C55B0D00D15B0D00F5
:1073F000D95B0D00E35B0D00ED5B0D0025592D25DC
:107400006D2D25645425483A254D3A2553257A009B
:1074100061736374696D6500000000000000000086
:107420001D610D008B610D0063610D00D55C0D00C9
:1074300033610D004F610D0041610D005D610D0074
:107440001F610D0025610D0000000000000000001C
:1074500017620D007F620D0055620D00D55C0D00B6
:1074600047620D0019620D0029620D0079620D005E
:1074700039620D0011620D000000000000000000E4
:1074800077630D006D630D0063630D0019630D00DC
:1074900057630D004B630D00B55B0D00BD5B0D0028
:1074A0003F630D0037630D002D630D0023630D0056
:1074B000ED5B0D000000202020202020202020282F
:1074C000282828282020202020202020202020209C
:1074D00020202020202088101010101010101010D4
:1074E0001010101010100404040404040404040414
:1074F0001010101010101041414141414101010193
:10750000010101010101010101010101010101016B
:107510000110101010101042424242424202020278
:10752000020202020202020202020202020202023B
:1075300002101010102000000000000000000000E9
:10754000000000000000000000000000000000003B
:10755000000000000000000000000000000000002B
:10756000000000000000000000000000000000001B
:10757000000000000000000000000000000000000B
:1075800000000000000000000000000000000000FB
:1075900000000000000000000000000000000000EB
:1075A00000000000000000000000000000000000DB
:1075B000000000000000000009440D0035540D00DB
:1075C000AD540D00655B0D00C15C0D00495E0D0002
:1075D00071600D0009610D0081630D000000000065
:0475E00000000000A7
:1075E40010740D00C0E4032000000000000000003F
:1075F4000000000000000000000000000000000087
:107604000000000000000000000000000000000076
:107614000000000000000000000000000000000066
:107624000000000000000000000000000000000056
:107634000000000000000000000000000000000046
:0C7644000000000000000000E5E703204B
:10765000FFFFFFFF00000102030405060708090AF7
:107660000B0C0D0E0F101112131415161718191AF2
:087670001B1C1D1E1F20280039
:0476780078563412FA
:04000003D0004020C9
:00000001FF
