:02000002D0002C
:1040000000400D0028760D00000006000C000501A0
:0840100004019A080000000001
:0440180088710D009E
:1040200009480A49884208B505D0094A824202D0A7
:10403000121A02F051FF0748074A0021121A02F033
:1040400073FF014808BD00BF60E4032094750D00B4
:10405000CCE40320CCE40320EDE7032070B5074E49
:10406000074C02F061FAA41BA4080025A54200D168
:1040700070BD56F8043B98470135F7E764750D00AD
:1040800088750D0000F026B808B500F037F9BDE8D6
:10409000084002F001BA01F001BA01F0FFB901F0E5
:1040A00005BA01F003BA0078B0FA80F04009704711
:1040B0000123037070470EB403B503AB002153F81E
:1040C000042B019301F0BBFE02B05DF804EB03B0DA
:1040D0007047000008B50121002002F095FA012187
:1040E000072002F091FA012001F0DAFEFF221146CA
:1040F000104601F0E5FE02F049F94FF4165102F0C6
:1041000039F9064800F006FA054B06490648002230
:104110001A60BDE8084001F0A5BF00BFD0E403204D
:10412000CCE4032043730D0018E5032038B5046880
:1041300005467CB16368013B63605BB92368204638
:104140009B689847A368013BA3601BB9236820467E
:10415000DB689847284638BD0B68036013B15A687E
:1041600001325A60704737B5CD6851F8043B00936F
:10417000044601A8FFF7F0FF6A462946204601F0F1
:1041800097FC01A8FFF7D2FF204603B030BD37B53A
:104190000D6951F8043B0093044601A8FFF7DCFFCA
:1041A0006A462946204601F0FEFA01A8FFF7BEFF45
:1041B000204603B030BD0000F0B595B002F0E6F83F
:1041C00003681B699847002840F38780444906A884
:1041D00001F0F5FE02F0DAF803681B69984780B138
:1041E00002F0D4F803685B699847C1B20EA801F0E9
:1041F0004BFF0EA906A801F06FFF0EA801F094FE78
:10420000E8E706990191084602F0CCFE0199354D88
:10421000354E364F024603A801F0AEFC059C039BC9
:104220000A9304A90BA8FFF797FF0AAA21460EA834
:1042300001F062FC0BA8FFF779FF0EA801F074FCF7
:10424000002841D00EA90AA8FFF78DFF29460C9837
:1042500002F096FE04460BA8FFF768FF0EA90AA815
:104260004CB9FFF794FF22480AA900F091FC0BA873
:10427000FFF75CFFE1E7FFF776FF31460C9802F0AD
:104280007FFE04460BA8FFF751FF0EA90AA834B918
:10429000FFF77DFF17480AA900F032FDE7E7FFF7B7
:1042A00062FF0C98394602F06BFE04460BA8FFF73C
:1042B0003DFF002CC1D10EA90AA8FFF768FF0E48E8
:1042C0000AA900F005FED2E70FA8FFF72FFF04A808
:1042D000FFF72CFF06A801F027FE15B0F0BD00BFC8
:1042E00043730D009C710D00A7710D00AC710D00A2
:1042F00028E50320E4E4032058E50320F0B52DED84
:10430000048B9BB000F09EFE04464848484D00F0E8
:104310002FFB4648F0EE408A00F0EAFA4348B0EE40
:10432000408A00F0E7FAB0EE409AFFF745FF4148B7
:1043300000F0F6FB4048B0EE480A00F09BFD00F0AC
:1043400081FE29680A2291FBF2F302FB1313064651
:10435000002B60D1F4EE688AF1EE10FA2B6009D6DA
:10436000B4EE488AF1EE10FA04D6B4EE499AF1EEB2
:1043700010FA0DD702F00AF830490122FFF79BFE30
:1043800002F004F801F031FD1BB0BDEC048BF0BD70
:1043900001F00AFF2A4909900AA801F050FE0A9B81
:1043A000284908930EA801F04AFE27490E9F12A83B
:1043B00001F045FE361B18EE100A069602F0F4FADC
:1043C000CDE9040118EE900A02F0EEFACDE90201FF
:1043D00012991E4EDDE90832CDE9007116A81C497C
:1043E00001F07EFE16A9304601F034FE16A801F059
:1043F0009BFD12A801F098FD0EA801F095FD0AA8FA
:1044000001F092FD01F0C2FF3168FFF754FE01F0A8
:10441000BDFF01F0EAFC2B6801332B6000F012FEB7
:104420006434201AB0D001F061F8ADE7D0E4032085
:10443000CCE4032028E5032058E50320BA710D00E1
:1044400048E5032008E503207CE5032018E5032068
:10445000C7710D0008B50021012000F07BFF062385
:1044600002210B22084800F04EF8084800F082FABA
:10447000074800F023FC074800F0C2FCBDE80840F4
:104480000549064801F09BBDD0E4032028E5032040
:10449000E4E4032058E5032043730D0018E50320EE
:1044A00010B503682F2B044604D9074A00210A20BF
:1044B00000F020FF23681F2B83BF03F01F03034876
:1044C00023604FF0A04010BD35500D000003005098
:1044D00007B5019001A8FFF7E3FF019A012393407C
:1044E000C0F8083503B05DF804FB07B5019001A8DA
:1044F000FFF7D6FF019BD0F81005D84000F001006F
:1045000003B05DF804FB10B5037201238171C27121
:10451000037410BD2DE9F04105461E4C8079DFF88B
:104520007880002102F070F8AE792378BFF35B8FBA
:1045300013F0010F0AD12046FFF7B5FD30B100F0AE
:1045400099FDC8F800002046FFF7B2FDD8F800300A
:1045500036019F5D2378BFF35B8FDB074FEA471778
:104560000AD40C48FFF79FFD30B100F083FDC8F876
:1045700000000848FFF79CFDD8F8003033445B7812
:1045800003F01F0343EA0700FFF7A2FF0023EB60DD
:10459000BDE8F081A0E50320A4E503202DE9F04F5C
:1045A000044685B000F04EFDE368834284BF0023DB
:1045B000E360237C2BB9E368C01AB0F5FA6FC0F052
:1045C0005D810025257400F03DFDAE4E256025710E
:1045D000E060A7793378AC4DBFF35B8F13F0010F28
:1045E00009D13046FFF75FFD28B100F043FD286098
:1045F0003046FFF75DFD2B683F0113F807803378E5
:10460000BFF35B8FD9074FEA481809D49D48FFF7DD
:104610004AFD28B100F02EFD28609A48FFF748FDBA
:104620002B681F44787800F01F0040EA0800FFF76D
:104630004FFFA079012101F0E7FFA7793378BFF39D
:104640005B8FDA0709D48F48FFF72DFD28B100F002
:1046500011FD28608B48FFF72BFD2B683F01DB5DC8
:104660004FEA43183378BFF35B8FDB0709D48548E3
:10467000FFF719FD28B100F0FDFC28608148FFF725
:1046800017FD2B681F4403A87B7803F01F0343EA40
:1046900008030393FFF704FF039A01239340C0F834
:1046A0000C35142000F022FF00F0A8FFA779337822
:1046B000BFF35B8FD80709D47248FFF7F4FC28B129
:1046C00000F0D8FC28606F48FFF7F2FC2B683F0130
:1046D00013F807803378BFF35B8FD9074FEA481888
:1046E00009D46848FFF7DFFC28B100F0C3FC28605C
:1046F0006448FFF7DDFC2B681F44787800F01F004A
:1047000040EA0800FFF7E4FE282000F093FCA079BF
:10471000DFF87081002101F077FF00270123BA46FE
:1047200000934FF0000994F806B03378BFF35B8F25
:10473000DA0709D44046FFF7B6FC28B100F09AFC2E
:1047400028604046FFF7B4FC2B684FEA0B1B13F8B8
:104750000B305B0101933378BFF35B8FDB0709D428
:104760004046FFF7A0FC28B100F084FC28604046DA
:10477000FFF79EFC2B685B4493F801B0019B0BF0A4
:104780001F0B4BEA030B5846FFF7AFFE5846FFF7E7
:10479000ACFE009B834209D109F101095FFA89F956
:1047A000012000F047FCB9F1FF0FBCD194F806B02E
:1047B0003378BFF35B8FD80709D44046FFF773FC0B
:1047C00028B100F057FC28604046FFF771FC2B68C9
:1047D0004FEA0B1B13F80B305B0100933378BFF3E8
:1047E0005B8FD90709D44046FFF75DFC28B100F084
:1047F00041FC28604046FFF75BFC2B685B4493F864
:1048000001B0009B0BF01F0B4BEA030B5846FFF760
:104810006CFE5846FFF769FEB9F1FF0FC3B2009373
:1048200018D0032F11D9FA070FD44FEADA020AF190
:10483000010AA35C5B00DBB2A354217A49453CBF6B
:1048400043F00103A3545FFA8AFA0137FFB2552FF0
:104850007FF467AF00F0D4FEBAF1270F10D9637868
:1048600020781844A3781844E37818442379C0B218
:10487000C31A5842584105B0BDE8F08F0120FAE74D
:104880000020F8E7A0E50320A4E5032010B50446C6
:10489000FFF784FE20B3E3790B2B1BD0153B012BD4
:1048A0001ED8A378DFED106A03F07F0207EE102A0E
:1048B000E27807EE902AB8EEC77AF8EEE77A1B06A0
:1048C000E7EE267AB2EE047A87EE870A07D5B1EED4
:1048D000400A04E0A37800EE103AB8EE400A10BD9A
:1048E0009FED020AFBE700BF000080430000C07F8D
:1048F000FFF7CCBF08B5FFF7C9FFF2EE027A20EE52
:10490000270AF1EE047A80EE277A9FED020A37EE4D
:10491000000A08BD0000004210B50446FFF73EFE45
:10492000F0B1E3790B2B15D0153B012B18D8237868
:10493000DFED0D6A07EE103A637807EE903AB8EEB5
:10494000477AF8EEE77AE7EE267AB2EE047A87EE57
:10495000870A10BD237800EE103AB8EE400AF8E757
:104960009FED020AF5E700BF000080430000C07F12
:10497000FFF7D2BF38B500F1200504460C492846A0
:1049800001F01DFB40F2011323808023636040F699
:10499000C4114FF4FA73C4E903132846054901F022
:1049A00061FB054BE361C4E90533204638BD00BF18
:1049B00043730D001C720D006179FEFF08B501F014
:1049C000A0FA28B1BDE808400121002001F08BBA0F
:1049D00008BD00000000000038B5134B99420446A2
:1049E00008460AD1656801F08CFA854216D0207914
:1049F0000121BDE8384001F076BA01F0C3FF0B4B4E
:104A0000002202F053F906A3D3E9002302F024F8B0
:104A100002F034FA01216060C0B2EAE738BD00BF9D
:104A20000000000000E06F406179FEFF0000594087
:104A300010B50446132001F0F8FDA06010BD000081
:104A40002DE9F0410446FFF7F3FF2569A068D4F88B
:104A50000C80A842B8BF28468045D4BFC5EB0800EB
:104A6000C5EB000001F08EFF0646A8EB05000F46DF
:104A700001F088FF02460B463046394602F016F92F
:104A800002460B4600200A4901F02EFE06A3D3E998
:104A9000002301F0E1FF02F0F1F901216060BDE8BF
:104AA000F041C0B201F01FBA0000000000E06F400A
:104AB0000000F03F0000000070B588B0C368467881
:104AC0000578039303690293836801930446406861
:104AD00001F058FF10A3D3E9002302F0E7F80C4BD4
:104AE000002201F0B9FF02F0C9F933462A460090CE
:104AF000084904A801F0F4FA04A904F1200001F027
:104B0000A9FA04A801F010FA08B070BDAFF3008054
:104B1000000059401F720D000000000000E06F40CF
:104B200038B50578044655B1012D13D0174BE36114
:104B3000C4E905332046BDE83840FFF7BDBFFFF7A5
:104B40003DFF6369114A9342F0D0002BEED0012360
:104B50002380EBE7437833B1012B0FD06369002B3F
:104B6000E4D12370E2E7C169FFF736FFA369074A82
:104B70009342F3D0002BF1D06570EFE7FFF760FFB1
:104B8000A369002BEAD16370E8E700BF6179FEFFFB
:104B90002DE9F0418AB08D6851F8043B009304463A
:104BA00001A8FFF7D9FA6A46294604A800F0A4FF35
:104BB00001A8FFF7BBFA3C4E3C4FDFF8FC8004A88D
:104BC00000F0B2FF002869D004A96846FFF7CBFACD
:104BD0003146029802F0D4F9054601A8FFF7A6FA7B
:104BE00004A968464DB9FFF7D2FA684600F012FEF4
:104BF000606101A8FFF79AFAE1E7FFF7B4FA3946D6
:104C0000029802F0BDF9054601A8FFF78FFA04A942
:104C1000684635B9FFF7BBFA684600F0FBFDA061B6
:104C2000E7E7FFF7A0FA4146029802F0A9F9054626
:104C300001A8FFF77BFA04A9684635B9FFF7A7FA80
:104C4000684600F025FEE061D3E7FFF78CFA1849CB
:104C5000029802F095F9054601A8FFF767FA04A942
:104C6000684635B9FFF793FA684600F011FE2061F7
:104C7000BFE7FFF778FA0F49029802F081F905467D
:104C800001A8FFF753FA002D99D104A96846FFF750
:104C90007EFA684600F0FCFDE060AAE705A8FFF791
:104CA00045FA0AB0BDE8F0814D720D0050720D005A
:104CB00060720D0064720D0055720D0038B500F180
:104CC000240504460B49284601F079F90123237095
:104CD0008023636040F6C4114FF4FA73C4E90313F0
:104CE0002846054901F0BEF9044B2046C4E90733C4
:104CF00038BD00BF43730D001C720D006179FEFFCB
:104D00002DE9F0418AB08D6851F8043B00930446C8
:104D100001A8FFF721FA6A46294604A800F0ECFE34
:104D200001A8FFF703FA324E324FDFF8D08004A813
:104D300000F0FAFE002855D004A96846FFF713FAE0
:104D40003146029802F01CF9054601A8FFF7EEF97A
:104D500004A968464DB9FFF71AFA684600F098FDB5
:104D6000206101A8FFF7E2F9E1E7FFF7FCF9394616
:104D7000029802F005F9054601A8FFF7D7F904A942
:104D8000684635B9FFF703FA684600F081FDE06038
:104D9000E7E7FFF7E8F94146029802F0F1F8054627
:104DA00001A8FFF7C3F904A9684635B9FFF7EFF981
:104DB000684600F06DFD2062D3E7FFF7D4F90E4995
:104DC000029802F0DDF8054601A8FFF7AFF9002DC3
:104DD000ADD104A96846FFF7DAF9684600F01AFD7C
:104DE000E061BEE705A8FFF7A1F90AB0BDE8F081D0
:104DF00060720D0064720D0076720D0068720D0015
:104E000038B50E49044604F1240501F0D8F80B49E1
:104E100004F1100001F0D3F80849284601F0CFF85A
:104E20000023C4E90D33C4E90F33054963642384C7
:104E3000284601F017F9204638BD00BF43730D0026
:104E40001C720D0010B586B0C36B0093D0E90D2322
:104E50000446074902A801F043F902A904F124001D
:104E600001F0F8F802A801F05FF806B010BD00BF2D
:104E70007D720D001E23436490F82030012B05D075
:104E8000022B17D0A3B9C0E90D330CE0F3EE0E7A74
:104E9000B4EEE70AF1EE10FA09DD00234363C36BB9
:104EA000012B02D10123036402E00023FBE7F5D4C8
:104EB000FFF7C8BFF3EE0E7AB4EEE70AF1EE10FA90
:104EC00002DD01238363EDE7F2D500238363E6E788
:104ED0002DE9F0418CB08D6851F8043B02930446F3
:104EE00003A8FFF739F902AA294606A800F004FE34
:104EF00003A8FFF71BF9424E424FDFF8148106A8C2
:104F000000F012FE002875D006A902A8FFF72BF9C1
:104F10000498314602F034F8054603A8FFF706F975
:104F20001DB9012384F82030E9E706A902A8FFF79C
:104F30001AF90498394602F023F8054603A8FFF74A
:104F4000F5F80DB90223EDE706A902A8FFF70BF962
:104F50000498414602F014F8054603A8FFF7E6F866
:104F600015B984F82050CAE706A902A8FFF7FBF894
:104F70002549049802F004F8054603A8FFF7D6F87F
:104F8000B5B90A9D069B009307A901A8FFF7E4F8AD
:104F90006A46294602A800F006FC01A8FFF7C6F8F9
:104FA00002A800F075FCE06303A8FFF7BFF8A6E7CE
:104FB00006A902A8FFF7D7F81449049801F0E0FF0A
:104FC000054603A8FFF7B2F8002D98D10A9D069B6D
:104FD000009307A901A8FFF7BFF86A46294602A86F
:104FE00000F0E1FB01A8FFF7A1F802A800F050FCD7
:104FF0006064D9E707A8FFF799F80CB0BDE8F08125
:10500000AE720D00B3720D00BC720D00C0720D00C7
:10501000B8720D0008B5024B1B685B6C019308BDAC
:105020004802030008B5024B1B685B68019308BD8A
:105030001802030008B5024B1B68DB68019308BD2A
:105040001802030008B5024B1B685B69019308BD99
:105050001802030008B5024B1B689B6D019308BD45
:105060001802030008B5024B1B685B6E019308BD74
:105070001802030008B5024B1B681B68019308BDAA
:105080002C02030008B5024B1B685B68019308BD46
:105090002C02030008B5024B1B689B68019308BDF6
:1050A0002C02030008B5024B1B681B6A019308BD64
:1050B0002C02030008B5024B1B685B6A019308BD14
:1050C0002C02030008B5024B1B681B6B019308BD43
:1050D0002C02030008B5024B1B681B6A019308BD34
:1050E0002802030008B5024B1B685B6A019308BDE8
:1050F0002802030008B5024B1B689B6A019308BD98
:105100002802030008B5024B1B68DB6A019308BD47
:105110002802030008B5024B1B681B6B019308BDF6
:105120002802030008B5024B1B685B6B019308BDA6
:105130002802030008B5024B1B681B6C019308BDD5
:105140002802030008B5024B1B685B69019308BD88
:105150006402030008B5024B1B689B68019308BDFD
:105160006802030008B5024B1B68DB68019308BDA9
:105170006802030008B5024B1B68DB69019308BD98
:105180003002030008B5024B1B681B6A019308BD7F
:105190003002030008B5024B1B681B68019308BD71
:1051A0003C02030008B5024B1B68DB68019308BD95
:1051B0003C02030008B5024B1B681B69019308BD44
:1051C0003C02030008B5024B1B685B69019308BDF4
:1051D0003C02030008B5024B1B689B69019308BDA4
:1051E0003C02030008B5024B1B68DB69019308BD54
:1051F0003C02030008B5024B1B681B6A019308BD03
:105200003C02030008B5024B1B689B6A019308BD72
:105210003C02030008B5024B1B681B68019308BDE4
:105220004C02030008B5024B1B685B68019308BD84
:105230004C02030008B5024B1B681B69019308BDB3
:105240004C02030008B5024B1B685B69019308BD63
:105250004C02030008B5024B1B689B69019308BD13
:105260004C02030008B5024B1B68DB69019308BDC3
:105270004C02030008B5024B1B681B6A019308BD72
:105280004C02030008B5024B1B685B68019308BD24
:105290006002030008B5024B1B689B68019308BDC0
:1052A0006002030008B5024B1B68DB68019308BD70
:1052B0006002030008B5024B1B681B69019308BD1F
:1052C0006002030008B5024B1B689B69019308BD8F
:1052D0006002030008B5024B1B68DB69019308BD3F
:1052E0006002030008B5024B1B68DB6A019308BD2E
:1052F0006002030008B5024B1B685B6B019308BD9D
:105300006002030008B5024B1B689B6B019308BD4C
:105310006002030008B5024B1B68DB6B019308BDFC
:105320006002030008B5024B1B681B68019308BDAF
:105330002002030008B5024B1B685B68019308BD9F
:105340002002030008B5024B1B685B69019308BD8E
:105350002002030008B5024B1B68DB6A019308BDFD
:105360002002030008B5024B1B689B6D019308BD2A
:105370002002030008B5034B1B68D3F88830019363
:1053800008BD00002002030008B5034B1B68D3F8DA
:105390009430019308BD00002002030008B5024BC1
:1053A0001B689B68019308BD4402030008B5024BCB
:1053B0001B685B69019308BD4402030008B5024BFA
:1053C0001B681B6B019308BD4402030008B5024B28
:1053D0001B68DB6B019308BD4402030008B5024B58
:1053E0001B685B68019308BD4002030008B5024BCF
:1053F0001B689B68019308BD4002030008B5024B7F
:105400001B68DB68019308BD4002030008B5024B2E
:105410001B681B69019308BD4002030008B5024BDD
:105420001B685B69019308BD4002030008B5024B8D
:105430001B689B69019308BD4002030008B5024B3D
:105440001B68DB69019308BD4002030008B5024BED
:105450001B681B6A019308BD4002030008B5024B9C
:105460001B681B6B019308BD4002030008B5024B8B
:105470001B685B6B019308BD4002030008B5024B3B
:105480001B681B6C019308BD4002030008B5024B6A
:105490001B685B6C019308BD4002030008B5024B1A
:1054A0001B681B68019308BD1C02030008B5024B72
:1054B0001B685B68019308BD1C02030008B5024B22
:1054C0001B689B68019308BD1C02030008B5024BD2
:1054D0001B685B6A019308BD1C02030008B5024B00
:1054E0001B685B6C019308BD1C0203000021FFF7E1
:1054F00029BF0000024800230360FFF78BBD00BFF7
:10550000A8E50320002240681146FFF79FBF002254
:1055100040681146FFF7AABF40680022FFF79EBF10
:105520004068002281F00101FFF788BF0023406836
:105530001A461946FFF77ABF002340681A461946F3
:10554000FFF76CBF002240681146FFF75FBF0022E3
:1055500040681146FFF74ABF406800220221FFF76A
:105560004DBF002340681A46FFF738BF024B0322A5
:105570005A60024A1A607047ACE50320D0720D00F1
:105580007047F8B5064615460C468F18BC4206D043
:10559000336814F8011B9B6830469847F6E72846A5
:1055A000F8BD007C0022FFF795BD007C0021FFF7CD
:1055B00099BD007C0021FFF79DBD007C0021FFF715
:1055C000A1BD007C0021FFF7A5BD10B51421044644
:1055D00001F080F8204610BD10B54FF47A730446F0
:1055E00008460021C4E90113034B236020741146CF
:1055F000FFF7A0FD204610BD0C730D00FFF75ABD4C
:10560000FFF750BD704710B51821044601F062F84D
:10561000204610BDF0B5037D062B8DB00E4600F17F
:1056200004074FF0000412D000F1080515F8011D21
:105630000A22304600F0E5FBAF42044419D0002CAA
:10564000F4D02E21304600F0CDFB0444EEE72F23AA
:105650006A4639460A208DF80040FFF773FD684618
:1056600001F0A0FC33680246DB6869463046984783
:10567000044620460DB0F0BD10B5054B044611227E
:1056800040F8043B002101F04FFC204610BD00BF54
:1056900034730D000346074A10B543F8042B01F19B
:1056A000100251F8044B43F8044B9142F9D10A78A7
:1056B0001A7010BD34730D0010B59DF8084044EA0F
:1056C000032343EA024242EA016104234160037575
:1056D00010BD13B5CB7800938B784A780978FFF723
:1056E000EBFF02B010BD00F11003012213F8101CF3
:1056F0000129184608D153F8041C02EB4102013A73
:1057000003F11003F2D17047022904BF53F8041CBF
:105710005218F4E770470020704710B51021044676
:1057200000F0D8FF204610BD08B5FFF7F6FF08BD12
:1057300010B5C4687CB1206808B1FEF7B2FC237ACA
:105740001BB1606808B1FEF7ACFC20460C21BDE837
:10575000104000F0BFBF10BD10B5036804469B6841
:105760009847A368013BA3602BB923682046DB68F8
:10577000BDE81040184710BD38B50B6803604D6890
:1057800043689D4204460CD015B16B6801336B60D1
:10579000606828B14368013B43600BB9FFF7DCFF49
:1057A0006560204638BD0B461146002210B5C0E9A1
:1057B0000022044683600BB9204610BDFFF7DCFFD2
:1057C000FAE78368EBB11A78032A1AD8DFE802F007
:1057D0000417021B0520704702685B685268D05CA2
:1057E0002D2812D0A0F13003092B0ED974280ED029
:1057F00066280CD0A0F16E0358425841704706202D
:105800007047002070470420704703207047022033
:105810007047000010B50446FFF7D3FF03280DD0F2
:1058200004281ED002282BD12268A36852685B6826
:10583000D05CA0F174035842584110BDA36822689F
:105840005B6854681C440F49204601F099FB00280E
:10585000F3D00D49204601F093FB003818BF01201A
:10586000EBE72268A36852685B68D05CD418002814
:10587000E3D00649204601F083FB0028E3D1DCE7B2
:105880000020DAE742730D0040730D0044730D00F1
:1058900010B50446FFF795FF02280ED0C31EDBB2F9
:1058A000012B14D82268A36850685B68BDE81040DB
:1058B0000A220021184401F0F7BB2268A36852684D
:1058C0005B68D05CA0F174035842584110BD0020C1
:1058D000FCE700002DE9F047994688B01023074601
:1058E00088460DEB03000021924604930024FFF745
:1058F00009FD03AB01934FF0FF3600942346424667
:10590000394604A80396FFF705FD051E27DD039819
:1059100014498542B8BF0546B5F1006FACBF3046AB
:10592000280100F0DBFE064698B1002104A80024FF
:10593000FFF7E8FCCDE9005433464246394604A857
:10594000FFF7E8FCA04207DDCAF800600120C9F8B3
:10595000005008B0BDE8F0873046FEF7A2FB2046B5
:10596000F7E700BF60740D002DE9F84F43688668C3
:105970000B4488460E4407461C4619464FF00D0955
:105980004FF0090AB44263D0254615F8012B5C2A72
:105990002BD1A14207D0A4EB010B18465A4601F0C7
:1059A000A9FA03465B44B54239D06278752A2AD1F8
:1059B000A21CB21A032A32DDA01D04F1050E4FF01D
:1059C000000CAE4553D015F8011FA1F130025FFA6B
:1059D00082FBBBF1090F05D9A1F16102052A07D8A5
:1059E000A1F1570242EA0C1CEBE728460446C9E73E
:1059F000A1F14102052A12D8A1F13702F2E703F81A
:105A000001CB0146F2E76E2A1CD00ED8622A13D0D1
:105A100007D82F2A11D05C2A0FD0222A0DD00020BF
:105A200023E0662AFBD10C2207E0722A0DD0742AEB
:105A3000F5D183F800A001E008221A70A11C0133FF
:105A40000846D3E74FF00A02F7E783F80090F5E73E
:105A5000A14206D0641A1846224601F04BFA0346CA
:105A60002344A3EB0803BB600120BDE8F88FBCF121
:105A70007F0FC4D92146B9E7F8B50446154600EBB7
:105A800001160027B44210D02378032B08D12946F1
:105A90002046FFF769FF48B1A368EF541034F1E7DF
:105AA000002BFBD1A268AB54F8E70120F8BD000041
:105AB00038B50023C0E9003304460E48C4E90203A8
:105AC000A9B10B78032B06D08BB9136858684B68C3
:105AD000C35C6E2B07D013684D6858688B682844E8
:105AE0005B1BA060E36011462046FFF745FE2046A1
:105AF00038BD00BF43730D0038B500250B46C0E923
:105B00000055C0E90255C0E90455044611464BB1A1
:105B10001A78012A06D103F11002DB688260436122
:105B2000FFF72AFE204638BD10B54369044663B12D
:105B30008068E060013B1030A0602061636113B1B8
:105B4000FFF7D1FDA060012000E0184610BD000065
:105B500038B500230446036010200D46FEF79BFA7B
:105B600028B10123C0E90133024B0360C560206006
:105B7000204638BD54730D00F0B5044687B00E467C
:105B80000C202749154600F0A7FD014618B1002357
:105B9000C0E90033037203A80291FFF7D9FF029A0C
:105BA00042B9C4E90022A26003A8FEF7BFFA20466A
:105BB00007B0F0BD00230193294601AB3046FFF743
:105BC00089FE18B9C4E90000A060EDE71449029FFE
:105BD000681C00F083FD029B786058680028F1D0B3
:105BE0002A46314601F078F9029B01991868012292
:105BF0001A725A68FFF740FF0028E3D0029B196829
:105C00000493039B059313B15A6801325A6004AAA6
:105C10002046FFF7C8FD05A8FEF788FAC4E700BFD5
:105C200060740D00014B024A1A607047B4E503200E
:105C300068730D00002340681A46FFF7CFBB406829
:105C400000220221FFF7DABB002240681146FFF76D
:105C5000CDBB002240681146FFF7D8BB0023406847
:105C60001A461946FFF7DABB002340681A46194660
:105C7000FFF7DCBB40680021FFF700BC4068002153
:105C8000FFF704BC4068002281F00101FFF7D6BB9A
:105C900040680022FFF7E2BB002240681146FFF790
:105CA000E5BB002240681146FFF7D0BB2DE9F04369
:105CB000002495B016460D460746FFF7DDFC214649
:105CC00018220EA8009401F02FF94023CDE90C34DE
:105CD00021466B460CAA3046FFF744FA04460028DA
:105CE00046D1024601216868FFF790FB02218046F9
:105CF00022466868FFF78AFB009E81462146002EF7
:105D000036D0002934D17368022B03D00A2B0BD074
:105D1000F669F4E7B8F1000F04D071693846043130
:105D2000FFF7D7FC4146F3E7B9F1000F01D149462F
:105D3000EEE77469102201A801F0F6F806238DF849
:105D4000143001AD04F108031834186859682A4664
:105D500003C20833A3421546F7D101A906A807AD2F
:105D6000FFF798FC0FCD3C1D0FC42B682370DEE7B6
:105D70000098FFF7EFF9384615B0BDE8F083000052
:105D8000024B034A1A6000225A607047B8E50320AC
:105D900074730D00F8B506460D468F180024BD42F9
:105DA0000CD0336815F8011B9B6830469847031EDA
:105DB00001DB1C44F3E7002C08BF1C462046F8BD5D
:105DC00013B50446084659B1019101F0EBF8236878
:105DD0000199DB680246204602B0BDE81040184732
:105DE00002B010BD03689B68184738B50D21054601
:105DF000FFF7F8FF0A2104462846FFF7F3FF204487
:105E000038BD30B58BB000238DF82430012A98BFFF
:105E10000A2209AC0D46B1FBF2F101FB125303F06B
:105E2000FF03092B94BF30333733DBB2AA4204F8A7
:105E3000013DEFD92146FFF7C3FF0BB030BD2DE97F
:105E4000F04186B000AF05460E46381D14211446B9
:105E50003B60FFF73BFB13280ED8391D2846FFF7A0
:105E6000AFFF04461EB12846FFF7BFFF044420469B
:105E70001837BD46BDE8F08100F1080323F00703A1
:105E8000E846ADEB030D2246411C3B686846FFF730
:105E90001DFB69462846FFF793FF0446C546E1E728
:105EA00010B50446FFF70EFA844208D01CB1BDE8D5
:105EB0001040FFF7EFB9BDE81040FFF7F3B910BD90
:105EC00070B505460E461446FFF7FCF950B144EA9A
:105ED000062040EA0540FFF7D5F9BDE87040E7200D
:105EE000FFF7F8B970BD10B50C46FFF7E3F9FFF7FF
:105EF000E9F928B124B1BDE81040E720FFF7EAB97D
:105F000010BDFFF7EFB90000014B00229A60704707
:105F1000C0E5032010B5044608462170FFF72AF9B2
:105F200000236360204610BD10B504460068FFF7EB
:105F3000BDFA204610BD10B50446006808B1FFF751
:105F4000B5FA0023C4E90133236010BD38B5044617
:105F50000D4600680131FFF7B1FA10B1C4E9000540
:105F6000012038BD10B50368044623B143688B4255
:105F700001D3012010BD2046FFF7E8FF0028F9D02B
:105F8000A368002BF5D122681370F2E737B50D46F0
:105F9000114601920446FFF7E5FF019A28B9204611
:105FA000FFF7C9FF204603B030BDA2602946206834
:105FB00000F092FF2268A3680021D154F2E7002389
:105FC00013B5C0E9003304468360037341B108464A
:105FD000019100F0E7FF019902462046FFF7D6FF46
:105FE000204602B010BD38B5054600680C4668B1C1
:105FF0006A688B689A4207D3096800F0CBFFA368F0
:10600000AB600023A36038BDFFF750FA23682B6014
:1060100063686B60A368AB600023C4E90033F1E7F9
:10602000884210B5044605D00B682BB18A68194622
:10603000FFF7ACFF204610BDFFF77DFFFAE710B574
:1060400000230446C0E9003383600373FFF7E8FFD1
:10605000204610BD884210B5044601D0FFF7C3FFAB
:10606000204610BD13B5044659B10846019100F011
:1060700099FF019902462046FFF788FF204602B0AB
:1060800010BDFFF758FFF9E713B500238DF8041092
:10609000C0E900338360037301A904468DF805301D
:1060A000FFF7E0FF204602B010BD70B505460E4672
:1060B00009B9002070BD6AB1846814442146FFF715
:1060C00051FF0028F5D02868AB683146184400F02D
:1060D00061FFAC600120EDE78A680968FFF7E5BF62
:1060E0000EB470B587B00BAD044655F8042B019281
:1060F0002B46052104A80395FFF7E8F90B4906464E
:106100002046FFF75CFF31462046FFF72BFF206853
:1061100030B1019A03952B46711CFFF7D7F9A060A7
:10612000204607B0BDE8704003B0704743730D00D0
:10613000054B02221A60054B054A9A600020186040
:1061400098809871FFF7F6B8DCE50320D0E50320CE
:106150000000FFFF08B50020FFF730F928B1FFF776
:1061600025F980F00100C0B208BD0120FCE710B5A0
:106170000020FEF76FFF0446A0B9FFF7D3F801280F
:1061800010D12046FFF7EEF860B9FFF7E3FF10B932
:10619000FFF704F9F9E7FFF7DDFFBDE81040002045
:1061A000FEF758BF204610BD1FB5FFF7E0FF1022D5
:1061B0000021684600F0B8FE00216846FEF752FF55
:1061C000009805B05DF804FB024B1A68024B1A6098
:1061D000704700BF60E40320E0E50320704741748E
:1061E0007047704708B5007CFFF70CF820EAE070B4
:1061F00008BD08B5007CFEF7DDFF20EAE07008BDB1
:1062000008B5007CFEF7E6FF40EAE07008BD08B57F
:10621000007CFEF7D7FF40EAE07008BD007CFEF787
:10622000E1BF37B5457C04462DB1207C03B0BDE805
:106230003040FEF7B7BF007C0191FEF7E3FF002876
:106240000199F2DC284603B030BD10B51421044694
:1062500000F040FA204610BD10B54FF0000C044687
:10626000084611464FF47A72C4E901C2044A22601A
:106270000122207462741A46FEF78CFF204610BD7E
:10628000CC730D0013B50D4C2178BFF35B8F11F06B
:10629000010110D120460191FDF705FF019950B190
:1062A000074B084A0848FFF7D7FF2046FDF700FFD5
:1062B000064800F00BFE044802B010BDE4E50320E0
:1062C0006CE60320E8E50320F0E60320E3610D001F
:1062D000417470477047704708B50021007CFEF795
:1062E000B9FF40EAE07008BD08B50121007CFEF767
:1062F000B1FF40EAE07008BD08B5007CFEF7A2FFE0
:1063000020EAE07008BD08B5007CFEF793FF20EAA4
:10631000E07008BD13B50446007C0191FEF792FFC2
:106320000028019901DC607C20B1207CFEF79AFFF7
:1063300020EAE07002B010BD007CFEF79BBF10B5F4
:106340001421044600F0C6F9204610BD10B54FF4E4
:106350007A73044608460021C4E90113044B236004
:106360000123207463741146FEF754FF204610BDCC
:10637000FC730D00007C0022FEF754BF10B5142200
:106380000446002100F0D0FD204610BD10B50F4C92
:1063900088B003A8FFF7F2FF2178BFF35B8F11F0FD
:1063A00001010FD120460191FDF77DFE019948B111
:1063B00003AA0748FFF7CAFF2046FDF779FE054804
:1063C00000F084FD024808B010BD00BF04E70320C0
:1063D00008E70320D5620D00002240681146FFF750
:1063E00015B8002240681146FFF730B80022406817
:1063F0001146FFF73BB840680022FFF72FB840680E
:10640000002281F00101FFF719B8002340681A4605
:106410001946FFF70BB8002340681A461946FEF7E5
:10642000FDBF002240681146FEF7E0BF4068002231
:106430000221FEF7E3BF002340681A46FEF7CEBFF5
:10644000024B04225A60024A1A6070471CE703207C
:106450002C740D00014B1860704700BF64E40320EA
:1064600008B50B4B43B1FFF791FF03681B699847D1
:10647000002801DDAFF30080064B43B1FFF702FFB8
:1064800003681B699847002801DDAFF3008008BD51
:10649000000000000000000008B5FFF7E1FFFEF774
:1064A000D1FD014B186008BD38E703200548064AB6
:1064B000064908B5121A00F00FFD054B054A1A608F
:1064C00008BD00BF00F4032004F4032090750D0004
:1064D00000F403201E1C279A07B5002300931A46D8
:1064E0006FF07701FEF750FF03B05DF804FB00008A
:1064F00007B543880A2B08D0502B0BD1094B1B68DA
:106500004BB103B05DF804EB1847FFF7E5FF03B0AC
:106510005DF804FB002300931A466FF07701FEF745
:1065200033FFF4E728E7032010B512480021FEF7F7
:10653000D5FF114B1A68114B9A42114B0CBF012227
:1065400000221A7001D0FFF7B1FFFEF76BFD044681
:1065500000F0F2FC0B4B13B12046AFF3008000219A
:106560000848FEF733FFBDE8104007480021FEF75A
:1065700001BF00BF55640D0000F403201E1C279AC4
:1065800024E7032000000000F1640D00232813B568
:1065900002D9002002B010BDA0F10B03022B1AD8C3
:1065A000174C2178BFF35B8F11F001010BD120460E
:1065B0000191FDF778FD019928B11248FFF7AAFC77
:1065C0002046FDF775FD0F4B1878FEF7DBFD002820
:1065D000DFD10120DEE7012809D800F057F80021BB
:1065E000007CFEF79FFD80F00100C0B2D2E70938C1
:1065F0000128EED8FFF746FE007CFEF7FBFDF2E730
:106600002CE7032030E70320232838B504460D4645
:106610000AD8FF2908D0FFF7B9FF28B1294620463C
:10662000BDE83840FEF736BD38BD0D2810B504462C
:106630009CBF0E34A4B22046FFF7A8FF50B103213F
:106640002046FEF71FFD032804D12046BDE8104078
:10665000FEF738BD002010BD7047000038B500239C
:106660002025438014230446038085600561064984
:10667000284600F033F804496060284600F02EF800
:10668000E060204638BD00BF60740D0030B50E4D8F
:106690002978BFF35B8F11F0010487B011D1284630
:1066A000FDF701FD68B101A8FFF7D8FF01AA214657
:1066B0000648FEF791FF2846FDF7FAFC044800F073
:1066C00005FC024807B030BD3CE7032040E703204B
:1066D00059660D00FDF7E3BCFDF7DDBCFDF7DDBC41
:1066E00081F0004102E000BF83F0004330B54FEA83
:1066F00041044FEA430594EA050F08BF90EA020FF0
:106700001FBF54EA000C55EA020C7FEA645C7FEA82
:10671000655C00F0E2804FEA5454D4EB5555B8BFA5
:106720006D420CDD2C4480EA020281EA030382EA16
:10673000000083EA010180EA020281EA0303362DA8
:1067400088BF30BD11F0004F4FEA01314FF4801C7B
:106750004CEA113102D0404261EB410113F0004F8D
:106760004FEA03334CEA133302D0524263EB430344
:1067700094EA050F00F0A780A4F10104D5F1200EE2
:106780000DDB02FA0EFC22FA05F2801841F100013D
:1067900003FA0EF2801843FA05F359410EE0A5F111
:1067A00020050EF1200E012A03FA0EFC28BF4CF042
:1067B000020C43FA05F3C01851EBE37101F00045F8
:1067C00007D54FF0000EDCF1000C7EEB00006EEB05
:1067D0000101B1F5801F1BD3B1F5001F0CD349088F
:1067E0005FEA30004FEA3C0C04F101044FEA4452E6
:1067F00012F5800F80F09A80BCF1004F08BF5FEA6D
:10680000500C50F1000041EB045141EA050130BD4C
:106810005FEA4C0C404141EB0101013C28BFB1F55E
:10682000801FE9D291F0000F04BF01460020B1FAA9
:1068300081F308BF2033A3F10B03B3F120020CDA7C
:106840000C3208DD02F1140CC2F10C0201FA0CF05A
:1068500021FA02F10CE002F11402D8BFC2F1200CBF
:1068600001FA02F120FA0CFCDCBF41EA0C01904075
:10687000E41AA2BF01EB0451294330BD6FEA0404BE
:106880001F3C1CDA0C340EDC04F11404C4F12002A9
:1068900020FA04F001FA02F340EA030021FA04F3BB
:1068A00045EA030130BDC4F10C04C4F1200220FA12
:1068B00002F001FA04F340EA0300294630BD21FA50
:1068C00004F0294630BD94F0000F83F4801306BF16
:1068D00081F480110134013D4EE77FEA645C18BF0A
:1068E0007FEA655C29D094EA050F08BF90EA020FA1
:1068F00005D054EA000C04BF1946104630BD91EA99
:10690000030F1EBF0021002030BD5FEA545C05D19B
:106910004000494128BF41F0004130BD14F58004DA
:106920003CBF01F5801130BD01F0004545F0FE414E
:1069300041F470014FF0000030BD7FEA645C1ABF83
:10694000194610467FEA655C1CBF0B46024650EABA
:10695000013406BF52EA033591EA030F41F40021E6
:1069600030BD00BF90F0000F04BF0021704730B56C
:106970004FF4806404F132044FF000054FF0000141
:1069800050E700BF90F0000F04BF0021704730B502
:106990004FF4806404F1320410F0004548BF4042D7
:1069A0004FF000013EE700BF42004FEAE2014FEA2C
:1069B00031014FEA02701FBF12F07F4393F07F4F07
:1069C00081F06051704732F07F4208BF704793F00A
:1069D0007F4F04BF41F40021704730B54FF460741D
:1069E00001F0004521F000411CE700BF50EA010220
:1069F00008BF704730B54FF000050AE050EA0102C9
:106A000008BF704730B511F0004502D5404261EB38
:106A100041014FF4806404F132045FEA915C3FF479
:106A2000D8AE4FF003025FEADC0C18BF03325FEA16
:106A3000DC0C18BF033202EBDC02C2F1200300FAC7
:106A400003FC20FA02F001FA03FE40EA0E0021FAEC
:106A500002F11444BDE600BF70B54FF0FF0C4CF4DA
:106A6000E06C1CEA11541DBF1CEA135594EA0C0F8C
:106A700095EA0C0F00F0DEF82C4481EA030621EAC7
:106A80004C5123EA4C5350EA013518BF52EA033502
:106A900041F4801143F4801338D0A0FB02CE4FF0B4
:106AA0000005E1FB02E506F00042E0FB03E54FF0E4
:106AB0000006E1FB03569CF0000F18BF4EF0010EDC
:106AC000A4F1FF04B6F5007F64F5407404D25FEAD8
:106AD0004E0E6D4146EB060642EAC62141EA55518B
:106AE0004FEAC52040EA5E504FEACE2EB4F1FD0CCD
:106AF00088BFBCF5E06F1ED8BEF1004F08BF5FEA4B
:106B0000500E50F1000041EB045170BD06F00046FC
:106B100046EA010140EA020081EA0301B4EB5C04A9
:106B2000C2BFD4EB0C0541EA045170BD41F48011A1
:106B30004FF0000E013C00F3AB8014F1360FDEBFC6
:106B4000002001F0004170BDC4F10004203C35DAA2
:106B50000C341BDC04F11404C4F1200500FA05F325
:106B600020FA04F001FA05F240EA020001F00042C6
:106B700021F0004110EBD37021FA04F642EB06013C
:106B80005EEA430E08BF20EAD37070BDC4F10C0466
:106B9000C4F1200500FA04F320FA05F001FA04F22A
:106BA00040EA020001F0004110EBD37041F1000116
:106BB0005EEA430E08BF20EAD37070BDC4F1200521
:106BC00000FA05F24EEA020E20FA04F301FA05F289
:106BD00043EA020321FA04F001F0004121FA04F231
:106BE00020EA020000EBD3705EEA430E08BF20EA01
:106BF000D37070BD94F0000F0FD101F0004640003B
:106C000041EB010111F4801F08BF013CF7D041EABC
:106C1000060195F0000F18BF704703F000465200C0
:106C200043EB030313F4801F08BF013DF7D043EA91
:106C30000603704794EA0C0F0CEA135518BF95EA47
:106C40000C0F0CD050EA410618BF52EA4306D1D1CE
:106C500081EA030101F000414FF0000070BD50EAED
:106C6000410606BF1046194652EA430619D094EA77
:106C70000C0F02D150EA013613D195EA0C0F05D161
:106C800052EA03361CBF104619460AD181EA0301B5
:106C900001F0004141F0FE4141F470014FF000006D
:106CA00070BD41F0FE4141F4780170BD70B54FF008
:106CB000FF0C4CF4E06C1CEA11541DBF1CEA135588
:106CC00094EA0C0F95EA0C0F00F0A7F8A4EB05046A
:106CD00081EA030E52EA03354FEA013100F0888061
:106CE0004FEA03334FF0805545EA131343EA12632A
:106CF0004FEA022245EA111545EA10654FEA0026DF
:106D00000EF000419D4208BF964244F1FD0404F597
:106D1000407402D25B084FEA3202B61A65EB0305F3
:106D20005B084FEA32024FF480104FF4002CB6EBB0
:106D3000020E75EB030E22BFB61A754640EA0C0030
:106D40005B084FEA3202B6EB020E75EB030E22BF70
:106D5000B61A754640EA5C005B084FEA3202B6EBB1
:106D6000020E75EB030E22BFB61A754640EA9C0070
:106D70005B084FEA3202B6EB020E75EB030E22BF40
:106D8000B61A754640EADC0055EA060E18D04FEAFE
:106D9000051545EA16754FEA06164FEAC30343EA9E
:106DA00052734FEAC2025FEA1C1CC0D111F4801F6B
:106DB0000BD141EA00014FF000004FF0004CB6E764
:106DC00011F4801F04BF01430020B4F1FD0C88BF03
:106DD000BCF5E06F3FF6AFAEB5EB030C04BFB6EB0E
:106DE000020C5FEA500C50F1000041EB045170BD01
:106DF0000EF0004E4EEA113114EB5C04C2BFD4EB2E
:106E00000C0541EA045170BD41F480114FF0000EB1
:106E1000013C90E645EA060E8DE60CEA135594EA2D
:106E20000C0F08BF95EA0C0F3FF43BAF94EA0C0F30
:106E30000AD150EA01347FF434AF95EA0C0F7FF4A5
:106E400025AF104619462CE795EA0C0F06D152EAF9
:106E500003353FF4FDAE1046194622E750EA4106DD
:106E600018BF52EA43067FF4C5AE50EA41047FF4EE
:106E70000DAF52EA43057FF4EBAE12E74FEA410251
:106E800012F5001215D211D56FF47873B3EB62527C
:106E900012D94FEAC12343F0004343EA505311F0A3
:106EA000004F23FA02F018BF404270474FF0000035
:106EB000704750EA013005D111F0004008BF6FF073
:106EC000004070474FF00000704700BF00230146AC
:106ED0001A46184600F0F2B80A44914200F1FF3316
:106EE00000D1704710B511F8014B03F8014F9142E2
:106EF000F9D110BD884210B501EB020402D98442D9
:106F0000234607D8431EA14208D011F8012B03F8ED
:106F1000012FF8E7024401468A4200D110BD13F860
:106F2000014D02F8014DF7E702440346934200D1B8
:106F3000704703F8011BF9E738B50D4B1D68AB6BC3
:106F400004467BB91820FEF7A9FA0A4A0A4BA8633F
:106F5000C0E90023094B83600B23838101220023B6
:106F6000C0E90423AB6B00221C615A6138BD00BF2D
:106F700064E403200E33CDAB34126DE6ECDE050085
:106F800010F8012B11F8013B012A28BF9A42F7D0D3
:106F9000D01A7047034611F8012B03F8012B002A81
:106FA000F9D17047034613F8012B002AFBD1181AB8
:106FB000013870472DE9F0473A4E86468C466046C8
:106FC0001CF8014BA55D15F00805F8D12D2C33D127
:106FD0009CF800404FF0010800F1020C002B5CD03F
:106FE000102B0CD1302C0AD19CF8000000F0DF00EF
:106FF00058284DD19CF8014010230CF1020C08F1E7
:107000000047013F0026B7FBF3F9304603FB197A2E
:10701000A4F13005092D18D82C46A34224DD751C97
:1070200007D081451DD301D1A2451ADB00FB0340E7
:1070300001261CF8014BEBE72B2C08BF9CF8004005
:10704000A84608BF00F1020CC8E7A4F14105192DBC
:1070500001D8373CE1E7A4F16105192D04D8573C6C
:10706000DBE74FF0FF36E4E7731C06D12223CEF8AE
:107070000030384642B9BDE8F087B8F1000F00D0C3
:107080004042002AF7D00EB10CF1FF311160F2E757
:107090003024002BB3D10823B1E7302CA4D00A232D
:1070A000ADE700BF62740D0013460A460146024870
:1070B0000068FFF77FBF00BF64E403202DE9F843B9
:1070C000DFF8B8800646D8F800001F460D46914606
:1070D00000F056F8254B1C6834B9254C1C60254B34
:1070E00013B11B68C4F8883063681F2B07DDD8F81C
:1070F000000000F047F84FF0FF30BDE8F8834EB3D2
:10710000D4F8880088B91C4B23B9D8F8000000F0E7
:1071100038F8F0E74FF48470FEF7C0F90028F4D097
:107120000023C0E94033C4F88800636840F8239026
:1071300001229A4000EB8301D0F800311343022E64
:10714000C0F80031C1F8807002BFD0F804311A4392
:10715000C0F804216368D8F800005A1C023362604A
:1071600044F8235000F00EF80020C6E7E0E70320C3
:1071700054E70320000000009D540D00C8E40320E4
:10718000704770477047000021400D005D400D00C2
:1071900085400D0089400D0000000000736D617294
:1071A000746C6967687400646F6F720073797374CC
:1071B000656D436F6E74726F6C007B224661696C03
:1071C000223A2025647D007B2274223A25642C22F9
:1071D0006C69676874223A25732C2022646F6F7281
:1071E000223A25732C2022746865726D6F73746166
:1071F00074223A25732C202248756D6964223A2541
:107200002E32662C202254656D70223A252E32666D
:107210002C20226374223A256C647D007B7D007BE8
:10722000224C30223A25642C224C31223A25642CFF
:107230002262223A25642C2273223A25642C226D84
:10724000223A25642C224D223A25647D006F6E007F
:107250006175746F006272696768746E657373003C
:107260006D696E006D617800646F6F7250726F7837
:10727000696D69747900737461747573007B226839
:10728000656174537461747573223A25642C2263AA
:107290006F6F6C537461747573223A25642C226687
:1072A000616E537461747573223A25647D0068655C
:1072B000617400636F6F6C006F66660066616E00DC
:1072C00074656D7000000000000000000000000008
:1072D00063550D0059550D004F550D0045550D00D6
:1072E00039550D002D550D00755C0D007D5C0D00B0
:1072F00021550D0019550D000F550D0005550D00B8
:10730000AD5C0D00000000000000000081550D0084
:10731000CB550D00A3550D0083550D00AB550D0049
:10732000B3550D00BB550D00C3550D000000000006
:107330000000000015560D0005560D0007560D0003
:10734000302E300066616C736500000000000000A4
:107350000000000015570D001B570D0031570D00A0
:1073600029570D0017570D006170700000000000D4
:1073700000000000355C0D003F5C0D00495C0D0015
:10738000535C0D005D5C0D00695C0D00755C0D00CB
:107390007D5C0D00855C0D00915C0D00995C0D001D
:1073A000A35C0D00AD5C0D0025592D256D2D2564C8
:1073B0005425483A254D3A2553257A006173637464
:1073C000696D65000000000000000000DD610D0037
:1073D0004B620D0023620D00955D0D00F3610D0001
:1073E0000F620D0001620D001D620D00DF610D00D6
:1073F000E5610D000000000000000000D7620D00F4
:107400003F630D0015630D00955D0D0007630D00D2
:10741000D9620D00E9620D0039630D00F9620D00BB
:10742000D1620D00000000000000000037640D0074
:107430002D640D0023640D00D9630D0017640D0049
:107440000B640D00755C0D007D5C0D00FF630D008D
:10745000F7630D00ED630D00E3630D00AD5C0D00FF
:107460000000202020202020202020282828282834
:10747000202020202020202020202020202020200C
:107480002020881010101010101010101010101064
:107490001010040404040404040404041010101064
:1074A000101010414141414141010101010101011F
:1074B000010101010101010101010101011010108F
:1074C00010101042424242424202020202020202F2
:1074D0000202020202020202020202020210101062
:1074E000102000000000000000000000000000006C
:1074F000000000000000000000000000000000008C
:10750000000000000000000000000000000000007B
:10751000000000000000000000000000000000006B
:10752000000000000000000000000000000000005B
:10753000000000000000000000000000000000004B
:10754000000000000000000000000000000000003B
:10755000000000000000000000000000000000002B
:107560000000000055440D00F5540D006D550D0050
:10757000255C0D00815D0D00095F0D0031610D007E
:10758000C9610D0041640D00000000000000000012
:0475900000000000F7
:10759400BC730D0068E4032000000000000000003C
:1075A40000000000000000000000000000000000D7
:1075B40000000000000000000000000000000000C7
:1075C40000000000000000000000000000000000B7
:1075D40000000000000000000000000000000000A7
:1075E4000000000000000000000000000000000097
:0C75F4000000000000000000E5E703209C
:10760000FFFFFFFF00000102030405060708090A47
:107610000B0C0D0E0F101112131415161718191A42
:087620001B1C1D1E1F20280089
:04762800785634124A
:04000003D0004020C9
:00000001FF
